8=FIX.4.4|9=135|35=W|49=BUYSIDE2|56=BROKER_X|34=1|52=20260101-00:00:00.010|262=CLI0Y6DPBHSA|55=JNJ|268=2|269=1|270=39.09|271=5|269=0|270=150.23|271=50|10=202|8=FIX.4.4|9=133|35=8|49=BUYSIDE2|56=ECN_Y|34=2|52=20260101-00:00:00.020|37=OR30T9NT3W5U|17=EXZBIKCIDKWN|150=0|39=0|55=MRK|54=1|38=10|151=10|14=0|6=0|10=224|8=FIX.4.4|9=142|35=D|49=ALGO_A|56=BROKER_X|34=3|52=20260101-00:00:00.030|11=CLTIQJ7YHL1C|21=1|55=AMZN|54=1|60=20260101-00:00:00.030|38=200|40=2|44=86.03|59=3|10=003|8=FIX.4.4|9=124|35=F|49=ALGO_A|56=ECN_Y|34=4|52=20260101-00:00:00.040|41=CLHR5XFF0T0P|11=CLVN9ER14FFY|55=META|54=2|60=20260101-00:00:00.040|10=126|8=FIX.4.4|9=141|35=D|49=ALGO_A|56=TARGET|34=5|52=20260101-00:00:00.050|11=CLYE511MKFAZ|21=1|55=BAC|54=2|60=20260101-00:00:00.050|38=5000|40=2|44=206.49|59=3|10=041|8=FIX.4.4|9=151|35=8|49=ALGO_A|56=TARGET|34=6|52=20260101-00:00:00.060|37=ORVREN93IIUC|17=EX039TEX8FSV|150=F|39=2|55=MA|54=1|38=50|32=35|31=80.93|151=15|14=35|6=80.93|10=010|8=FIX.4.4|9=56|35=0|49=BUYSIDE1|56=ECN_Y|34=7|52=20260101-00:00:00.070|10=148|8=FIX.4.4|9=143|35=D|49=SENDER|56=BROKER_X|34=8|52=20260101-00:00:00.080|11=CLIMVIHCWI64|21=1|55=META|54=2|60=20260101-00:00:00.080|38=5000|40=2|44=33.57|59=1|10=047|8=FIX.4.4|9=155|35=8|49=BUYSIDE1|56=TARGET|34=9|52=20260101-00:00:00.090|37=ORDPPQ0Y9DOM|17=EX5IGQPKI7P5|150=F|39=2|55=TSLA|54=2|38=75|32=7|31=756.84|151=68|14=7|6=756.84|10=103|8=FIX.4.4|9=182|35=D|49=HFT01|56=EXCH_Z|34=10|52=20260101-00:00:00.100|11=CLR56FAO72KZ|21=1|55=QQQ|54=1|60=20260101-00:00:00.100|38=50|40=1|59=0|78=3|79=ACCT00|80=16|79=ACCT01|80=16|79=ACCT02|80=18|10=085|8=FIX.4.4|9=166|35=8|49=BUYSIDE2|56=TARGET|34=11|52=20260101-00:00:00.110|37=ORBR7TCS4CC5|17=EXO7UUBCXULJ|150=F|39=2|55=CVX|54=1|38=10000|32=3911|31=140.41|151=6089|14=3911|6=140.41|10=075|8=FIX.4.4|9=158|35=8|49=SENDER|56=TARGET|34=12|52=20260101-00:00:00.120|37=ORQ99CHJ755N|17=EXF4ZW9XA3KX|150=F|39=2|55=JPM|54=2|38=1000|32=271|31=35.99|151=729|14=271|6=35.99|10=112|8=FIX.4.4|9=159|35=8|49=BUYSIDE2|56=BROKER_X|34=13|52=20260101-00:00:00.130|37=ORY4SJ6BW3BM|17=EXE9FPZUE8YF|150=F|39=2|55=AMZN|54=1|38=100|32=48|31=68.07|151=52|14=48|6=68.07|10=107|8=FIX.4.4|9=185|35=W|49=HFT01|56=BROKER_X|34=14|52=20260101-00:00:00.140|262=CLBN78BMYYMU|55=ORCL|268=4|269=0|270=213.91|271=50|269=0|270=161.77|271=500|269=0|270=22.08|271=10|269=1|270=12.47|271=1000|10=165|8=FIX.4.4|9=135|35=8|49=BUYSIDE2|56=ECN_Y|34=15|52=20260101-00:00:00.150|37=ORXO9T7E8G8J|17=EXDP0LVSNUJZ|150=0|39=0|55=AAPL|54=1|38=75|151=75|14=0|6=0|10=127|8=FIX.4.4|9=129|35=D|49=SENDER|56=ECN_Y|34=16|52=20260101-00:00:00.160|11=CLWXE6SYLZTG|21=1|55=PEP|54=2|60=20260101-00:00:00.160|38=50|40=1|59=1|10=118|8=FIX.4.4|9=228|35=W|49=HFT01|56=TARGET|34=17|52=20260101-00:00:00.170|262=CLKH2VLPYS28|55=WMT|268=6|269=0|270=41.15|271=10000|269=1|270=58.69|271=75|269=0|270=79.27|271=10|269=1|270=72.45|271=75|269=1|270=98.47|271=5|269=0|270=162.25|271=5000|10=025|8=FIX.4.4|9=134|35=D|49=BUYSIDE1|56=EXCH_Z|34=18|52=20260101-00:00:00.180|11=CLY9V86WZS3T|21=1|55=WMT|54=2|60=20260101-00:00:00.180|38=1000|40=1|59=0|10=136|8=FIX.4.4|9=129|35=D|49=ALGO_A|56=EXCH_Z|34=19|52=20260101-00:00:00.190|11=CLWJCKJLTEIY|21=1|55=MA|54=2|60=20260101-00:00:00.190|38=10|40=1|59=3|10=100|8=FIX.4.4|9=140|35=D|49=HFT01|56=TARGET|34=20|52=20260101-00:00:00.200|11=CLHP6VZ41NAM|21=1|55=PEP|54=2|60=20260101-00:00:00.200|38=500|40=2|44=121.23|59=3|10=195|8=FIX.4.4|9=58|35=0|49=BUYSIDE1|56=EXCH_Z|34=21|52=20260101-00:00:00.210|10=017|8=FIX.4.4|9=156|35=8|49=HFT01|56=BROKER_X|34=22|52=20260101-00:00:00.220|37=OR479T6VXDP5|17=EXGJLQM5K8P4|150=F|39=2|55=SPY|54=1|38=500|32=10|31=49.36|151=490|14=10|6=49.36|10=018|8=FIX.4.4|9=55|35=0|49=SENDER|56=ECN_Y|34=23|52=20260101-00:00:00.230|10=058|8=FIX.4.4|9=152|35=8|49=ALGO_A|56=BROKER_X|34=24|52=20260101-00:00:00.240|37=ORQJNV8Z2FLU|17=EX7U6N7HV3IZ|150=F|39=2|55=ABBV|54=1|38=5|32=5|31=21.07|151=0|14=5|6=21.07|10=189|8=FIX.4.4|9=56|35=0|49=ALGO_A|56=TARGET|34=25|52=20260101-00:00:00.250|10=122|8=FIX.4.4|9=154|35=8|49=HFT01|56=EXCH_Z|34=26|52=20260101-00:00:00.260|37=ORD8W3ZP08J3|17=EXTRP0J43D5I|150=F|39=2|55=NFLX|54=2|38=10|32=10|31=100.73|151=0|14=10|6=100.73|10=053|8=FIX.4.4|9=288|35=W|49=BUYSIDE2|56=TARGET|34=27|52=20260101-00:00:00.270|262=CLRLRMJKV5US|55=JNJ|268=8|269=0|270=54.71|271=5000|269=0|270=208.26|271=1000|269=1|270=154.98|271=75|269=1|270=145.38|271=10000|269=1|270=92.00|271=500|269=1|270=68.56|271=100|269=1|270=26.39|271=200|269=0|270=137.39|271=1000|10=143|8=FIX.4.4|9=158|35=8|49=BUYSIDE2|56=BROKER_X|34=28|52=20260101-00:00:00.280|37=ORKZEBBK7W1D|17=EXAKRM8J5ECR|150=F|39=2|55=GOOGL|54=2|38=10|32=3|31=190.31|151=7|14=3|6=190.31|10=023|8=FIX.4.4|9=155|35=8|49=ALGO_A|56=BROKER_X|34=29|52=20260101-00:00:00.290|37=OR1N6KVPUC8D|17=EX1WJCITFOYQ|150=F|39=2|55=AMZN|54=2|38=10|32=4|31=250.10|151=6|14=4|6=250.10|10=120|8=FIX.4.4|9=154|35=8|49=BUYSIDE1|56=EXCH_Z|34=30|52=20260101-00:00:00.300|37=OREIFJFC2V37|17=EXPQKOJTPV60|150=F|39=2|55=BAC|54=2|38=10|32=1|31=285.30|151=9|14=1|6=285.30|10=195|8=FIX.4.4|9=139|35=8|49=BUYSIDE1|56=EXCH_Z|34=31|52=20260101-00:00:00.310|37=ORSPK9P38QOL|17=EXDFORXO1BDJ|150=8|39=8|55=BRK.B|54=1|38=100|151=100|14=0|6=0|10=076|8=FIX.4.4|9=55|35=5|49=HFT01|56=TARGET|34=32|52=20260101-00:00:00.320|10=250|8=FIX.4.4|9=175|35=D|49=ALGO_A|56=ECN_Y|34=33|52=20260101-00:00:00.330|11=CLWRPBJEK5RB|21=1|55=HD|54=1|60=20260101-00:00:00.330|38=75|40=2|44=151.07|59=1|78=2|79=ACCT00|80=37|79=ACCT01|80=38|10=016|8=FIX.4.4|9=156|35=W|49=BUYSIDE1|56=TARGET|34=34|52=20260101-00:00:00.340|262=CLQE3RZSJ49I|55=V|268=3|269=1|270=34.47|271=50|269=0|270=23.05|271=500|269=1|270=333.85|271=5|10=042|8=FIX.4.4|9=154|35=8|49=BUYSIDE2|56=EXCH_Z|34=35|52=20260101-00:00:00.350|37=ORQLGZUI1B0Z|17=EX3NX39RBSV5|150=F|39=2|55=ADBE|54=2|38=50|32=7|31=86.29|151=43|14=7|6=86.29|10=018|8=FIX.4.4|9=143|35=D|49=HFT01|56=BROKER_X|34=36|52=20260101-00:00:00.360|11=CLC2JWOCLYT8|21=1|55=QQQ|54=1|60=20260101-00:00:00.360|38=5000|40=2|44=969.27|59=0|10=252|8=FIX.4.4|9=68|35=2|49=HFT01|56=TARGET|34=37|52=20260101-00:00:00.370|7=765|16=771|10=096|8=FIX.4.4|9=56|35=0|49=SENDER|56=EXCH_Z|34=38|52=20260101-00:00:00.380|10=154|8=FIX.4.4|9=149|35=8|49=BUYSIDE2|56=ECN_Y|34=39|52=20260101-00:00:00.390|37=ORPIOYGGVNYR|17=EXUIWQY6QKTC|150=F|39=2|55=KO|54=1|38=5|32=5|31=77.06|151=0|14=5|6=77.06|10=121|8=FIX.4.4|9=136|35=8|49=HFT01|56=EXCH_Z|34=40|52=20260101-00:00:00.400|37=ORDNMKZA3OA5|17=EX2960361I2H|150=8|39=8|55=JNJ|54=2|38=1000|151=1000|14=0|6=0|10=132|8=FIX.4.4|9=183|35=W|49=SENDER|56=TARGET|34=41|52=20260101-00:00:00.410|262=CLLPU0DK0GET|55=MRK|268=4|269=1|270=183.17|271=1000|269=1|270=165.95|271=10|269=1|270=41.26|271=5|269=1|270=109.08|271=100|10=016|8=FIX.4.4|9=264|35=W|49=SENDER|56=BROKER_X|34=42|52=20260101-00:00:00.420|262=CLQW7LVXWQZX|55=BRK.B|268=7|269=0|270=45.28|271=500|269=1|270=178.83|271=10000|269=0|270=460.74|271=1000|269=1|270=229.66|271=200|269=0|270=20.67|271=200|269=0|270=282.38|271=200|269=0|270=83.72|271=10|10=147|8=FIX.4.4|9=67|35=A|49=HFT01|56=TARGET|34=43|52=20260101-00:00:00.430|98=0|108=60|10=041|8=FIX.4.4|9=155|35=8|49=BUYSIDE1|56=BROKER_X|34=44|52=20260101-00:00:00.440|37=ORC1HH5LF6A4|17=EXFEJGXAA2IL|150=F|39=2|55=UNH|54=1|38=5|32=3|31=167.39|151=2|14=3|6=167.39|10=035|8=FIX.4.4|9=133|35=8|49=ALGO_A|56=TARGET|34=45|52=20260101-00:00:00.450|37=ORQHW06XKXB9|17=EX4PDZP6LFEW|150=0|39=0|55=CVX|54=1|38=10|151=10|14=0|6=0|10=230|8=FIX.4.4|9=141|35=D|49=SENDER|56=TARGET|34=46|52=20260101-00:00:00.460|11=CL4X1ZHQIMQO|21=1|55=TSLA|54=2|60=20260101-00:00:00.460|38=200|40=2|44=73.69|59=1|10=171|8=FIX.4.4|9=130|35=D|49=SENDER|56=TARGET|34=47|52=20260101-00:00:00.470|11=CL3DD03UVULE|21=1|55=KO|54=2|60=20260101-00:00:00.470|38=500|40=1|59=3|10=050|8=FIX.4.4|9=72|35=1|49=SENDER|56=ECN_Y|34=48|52=20260101-00:00:00.480|112=CLVMUHXID4N1|10=129|8=FIX.4.4|9=283|35=W|49=ALGO_A|56=TARGET|34=49|52=20260101-00:00:00.490|262=CLVXYBJ17MGF|55=IBM|268=8|269=0|270=26.05|271=5|269=0|270=152.99|271=500|269=1|270=70.34|271=200|269=0|270=185.50|271=10000|269=0|270=138.10|271=500|269=1|270=127.85|271=75|269=0|270=78.34|271=10000|269=1|270=104.95|271=75|10=068|8=FIX.4.4|9=133|35=D|49=BUYSIDE2|56=BROKER_X|34=50|52=20260101-00:00:00.500|11=CL11KERPETIU|21=1|55=KO|54=1|60=20260101-00:00:00.500|38=10|40=1|59=0|10=066|8=FIX.4.4|9=129|35=D|49=HFT01|56=TARGET|34=51|52=20260101-00:00:00.510|11=CL5UUZPEAL2W|21=1|55=MRK|54=1|60=20260101-00:00:00.510|38=10|40=1|59=1|10=251|8=FIX.4.4|9=130|35=D|49=ALGO_A|56=EXCH_Z|34=52|52=20260101-00:00:00.520|11=CLSOLMLGSES6|21=1|55=KO|54=2|60=20260101-00:00:00.520|38=200|40=1|59=0|10=124|8=FIX.4.4|9=60|35=0|49=BUYSIDE1|56=BROKER_X|34=53|52=20260101-00:00:00.530|10=175|8=FIX.4.4|9=164|35=8|49=ALGO_A|56=EXCH_Z|34=54|52=20260101-00:00:00.540|37=ORY5X9L8LPQW|17=EX2VMCQBNKX9|150=F|39=2|55=NVDA|54=1|38=10000|32=9734|31=138.05|151=266|14=9734|6=138.05|10=044|8=FIX.4.4|9=142|35=D|49=HFT01|56=BROKER_X|34=55|52=20260101-00:00:00.550|11=CLLRFCD6MZSG|21=1|55=HD|54=1|60=20260101-00:00:00.550|38=1000|40=2|44=126.08|59=3|10=143|8=FIX.4.4|9=125|35=F|49=HFT01|56=EXCH_Z|34=56|52=20260101-00:00:00.560|41=CL1YBWMLUNJ4|11=CL8VFCX7LXXE|55=NVDA|54=2|60=20260101-00:00:00.560|10=232|8=FIX.4.4|9=261|35=W|49=BUYSIDE1|56=TARGET|34=57|52=20260101-00:00:00.570|262=CLXPNNGH8RIE|55=META|268=7|269=1|270=38.14|271=50|269=1|270=55.74|271=10000|269=0|270=136.65|271=200|269=0|270=493.82|271=75|269=0|270=25.37|271=1000|269=0|270=342.08|271=100|269=1|270=100.17|271=50|10=147|8=FIX.4.4|9=58|35=0|49=ALGO_A|56=BROKER_X|34=58|52=20260101-00:00:00.580|10=061|8=FIX.4.4|9=125|35=F|49=SENDER|56=EXCH_Z|34=59|52=20260101-00:00:00.590|41=CL5TD44K1J6F|11=CLP8HQMABSI9|55=MRK|54=1|60=20260101-00:00:00.590|10=168|8=FIX.4.4|9=134|35=8|49=HFT01|56=BROKER_X|34=60|52=20260101-00:00:00.600|37=OR1QW6AHF7VP|17=EX1IEIXWC4RT|150=4|39=4|55=IWM|54=2|38=50|151=50|14=0|6=0|10=016|8=FIX.4.4|9=186|35=W|49=BUYSIDE2|56=EXCH_Z|34=61|52=20260101-00:00:00.610|262=CLAMUGYSM8T2|55=IWM|268=4|269=0|270=74.91|271=500|269=1|270=182.06|271=10|269=1|270=45.75|271=200|269=0|270=419.05|271=1000|10=011|8=FIX.4.4|9=184|35=W|49=SENDER|56=EXCH_Z|34=62|52=20260101-00:00:00.620|262=CLBH25LLO3RB|55=JNJ|268=4|269=1|270=40.62|271=200|269=1|270=44.01|271=500|269=1|270=240.57|271=50|269=1|270=150.91|271=5000|10=043|8=FIX.4.4|9=151|35=8|49=SENDER|56=TARGET|34=63|52=20260101-00:00:00.630|37=ORLKQZFPQ06W|17=EXPX2CYOS0FB|150=F|39=2|55=ADBE|54=2|38=10|32=1|31=53.47|151=9|14=1|6=53.47|10=077|8=FIX.4.4|9=157|35=8|49=ALGO_A|56=BROKER_X|34=64|52=20260101-00:00:00.640|37=ORY8N1UTOXIE|17=EX0RNUJJQ9K6|150=F|39=2|55=QQQ|54=2|38=200|32=52|31=68.61|151=148|14=52|6=68.61|10=244|8=FIX.4.4|9=133|35=8|49=SENDER|56=ECN_Y|34=65|52=20260101-00:00:00.650|37=ORYZTKKFZZGN|17=EXI92IRMUQ9E|150=4|39=4|55=NVDA|54=2|38=50|151=50|14=0|6=0|10=066|8=FIX.4.4|9=159|35=8|49=ALGO_A|56=TARGET|34=66|52=20260101-00:00:00.660|37=ORELCQSE3TV1|17=EXES53SKF7I8|150=F|39=2|55=LLY|54=2|38=5000|32=647|31=80.86|151=4353|14=647|6=80.86|10=211|8=FIX.4.4|9=158|35=8|49=SENDER|56=BROKER_X|34=67|52=20260101-00:00:00.670|37=ORVUGW6M7B5C|17=EX81JHUWB6TX|150=F|39=2|55=ABBV|54=2|38=50|32=31|31=155.25|151=19|14=31|6=155.25|10=235|8=FIX.4.4|9=137|35=8|49=BUYSIDE1|56=EXCH_Z|34=68|52=20260101-00:00:00.680|37=OROQMF5L9MO1|17=EXSDIEQFB85P|150=0|39=0|55=WMT|54=2|38=100|151=100|14=0|6=0|10=204|8=FIX.4.4|9=55|35=0|49=ALGO_A|56=ECN_Y|34=69|52=20260101-00:00:00.690|10=080|8=FIX.4.4|9=161|35=8|49=SENDER|56=EXCH_Z|34=70|52=20260101-00:00:00.700|37=ORS8HMBR5XQT|17=EX4P501NOUHT|150=F|39=2|55=META|54=2|38=1000|32=396|31=280.08|151=604|14=396|6=280.08|10=088|8=FIX.4.4|9=144|35=D|49=BUYSIDE1|56=TARGET|34=71|52=20260101-00:00:00.710|11=CLO2M71HSSBE|21=1|55=XOM|54=1|60=20260101-00:00:00.710|38=1000|40=2|44=102.63|59=3|10=005|8=FIX.4.4|9=126|35=F|49=BUYSIDE1|56=ECN_Y|34=72|52=20260101-00:00:00.720|41=CL7LOW4VSSRU|11=CLRALDOL65WV|55=BAC|54=1|60=20260101-00:00:00.720|10=065|8=FIX.4.4|9=56|35=0|49=ALGO_A|56=EXCH_Z|34=73|52=20260101-00:00:00.730|10=154|8=FIX.4.4|9=155|35=8|49=ALGO_A|56=TARGET|34=74|52=20260101-00:00:00.740|37=ORGPPOHSWQ40|17=EXZSU9RN8QTT|150=F|39=2|55=BAC|54=2|38=50|32=40|31=178.14|151=10|14=40|6=178.14|10=058|8=FIX.4.4|9=132|35=D|49=BUYSIDE1|56=ECN_Y|34=75|52=20260101-00:00:00.750|11=CL1ZYRRU7ZKU|21=1|55=PEP|54=2|60=20260101-00:00:00.750|38=500|40=1|59=1|10=043|8=FIX.4.4|9=57|35=0|49=BUYSIDE1|56=ECN_Y|34=76|52=20260101-00:00:00.760|10=209|8=FIX.4.4|9=134|35=8|49=ALGO_A|56=ECN_Y|34=77|52=20260101-00:00:00.770|37=OR7ZEWVIYTWB|17=EXOZD1AT7O75|150=8|39=8|55=SPY|54=1|38=200|151=200|14=0|6=0|10=074|8=FIX.4.4|9=205|35=D|49=SENDER|56=BROKER_X|34=78|52=20260101-00:00:00.780|11=CLT076G5G79O|21=1|55=QQQ|54=2|60=20260101-00:00:00.780|38=5|40=2|44=17.90|59=1|78=4|79=ACCT00|80=1|79=ACCT01|80=1|79=ACCT02|80=1|79=ACCT03|80=2|10=063|8=FIX.4.4|9=124|35=F|49=SENDER|56=ECN_Y|34=79|52=20260101-00:00:00.790|41=CLUD9K9TR74Q|11=CLGEFQJG02U1|55=UNH|54=2|60=20260101-00:00:00.790|10=115|8=FIX.4.4|9=72|35=1|49=ALGO_A|56=ECN_Y|34=80|52=20260101-00:00:00.800|112=CLDYGFLIJI18|10=094|8=FIX.4.4|9=134|35=8|49=SENDER|56=TARGET|34=81|52=20260101-00:00:00.810|37=ORQFY751YW7N|17=EXH8RQ9NZ612|150=0|39=0|55=MA|54=1|38=100|151=100|14=0|6=0|10=159|8=FIX.4.4|9=56|35=0|49=ALGO_A|56=TARGET|34=82|52=20260101-00:00:00.820|10=128|8=FIX.4.4|9=143|35=D|49=SENDER|56=BROKER_X|34=83|52=20260101-00:00:00.830|11=CLUFLSEHUDS3|21=1|55=NFLX|54=1|60=20260101-00:00:00.830|38=50|40=2|44=102.87|59=0|10=099|8=FIX.4.4|9=151|35=8|49=BUYSIDE1|56=TARGET|34=84|52=20260101-00:00:00.840|37=ORBMC97C7BO1|17=EX19XP9N56NY|150=F|39=2|55=JPM|54=2|38=5|32=3|31=45.69|151=2|14=3|6=45.69|10=001|8=FIX.4.4|9=141|35=8|49=BUYSIDE2|56=EXCH_Z|34=85|52=20260101-00:00:00.850|37=ORYTT3IMJ70E|17=EX3P15AHDBVZ|150=8|39=8|55=GOOGL|54=2|38=5000|151=5000|14=0|6=0|10=177|8=FIX.4.4|9=156|35=8|49=SENDER|56=BROKER_X|34=86|52=20260101-00:00:00.860|37=ORSK30LVYLKF|17=EXXHKC856WPR|150=F|39=2|55=KO|54=2|38=75|32=49|31=124.23|151=26|14=49|6=124.23|10=144|8=FIX.4.4|9=58|35=0|49=BUYSIDE2|56=EXCH_Z|34=87|52=20260101-00:00:00.870|10=042|8=FIX.4.4|9=139|35=D|49=ALGO_A|56=EXCH_Z|34=88|52=20260101-00:00:00.880|11=CLII4FQCOOTN|21=1|55=BAC|54=1|60=20260101-00:00:00.880|38=75|40=2|44=77.25|59=1|10=065|8=FIX.4.4|9=138|35=D|49=SENDER|56=ECN_Y|34=89|52=20260101-00:00:00.890|11=CLNVBC2VYHH6|21=1|55=ABBV|54=1|60=20260101-00:00:00.890|38=5|40=2|44=61.05|59=0|10=242|8=FIX.4.4|9=57|35=0|49=HFT01|56=BROKER_X|34=90|52=20260101-00:00:00.900|10=180|8=FIX.4.4|9=209|35=D|49=BUYSIDE2|56=ECN_Y|34=91|52=20260101-00:00:00.910|11=CLNTMJSRD9Q4|21=1|55=MA|54=1|60=20260101-00:00:00.910|38=5000|40=1|59=1|78=4|79=ACCT00|80=1250|79=ACCT01|80=1250|79=ACCT02|80=1250|79=ACCT03|80=1250|10=024|8=FIX.4.4|9=158|35=8|49=BUYSIDE2|56=BROKER_X|34=92|52=20260101-00:00:00.920|37=ORHIUIT7M1R0|17=EX0Q0MFTG698|150=F|39=2|55=AMZN|54=1|38=50|32=5|31=150.19|151=45|14=5|6=150.19|10=220|8=FIX.4.4|9=68|35=A|49=SENDER|56=TARGET|34=93|52=20260101-00:00:00.930|98=0|108=30|10=175|8=FIX.4.4|9=154|35=8|49=ALGO_A|56=EXCH_Z|34=94|52=20260101-00:00:00.940|37=ORXATOAZTKSZ|17=EXP7G7SIWJM2|150=F|39=2|55=NVDA|54=1|38=50|32=24|31=63.09|151=26|14=24|6=63.09|10=089|8=FIX.4.4|9=57|35=5|49=HFT01|56=BROKER_X|34=95|52=20260101-00:00:00.950|10=195|8=FIX.4.4|9=69|35=2|49=SENDER|56=TARGET|34=96|52=20260101-00:00:00.960|7=232|16=252|10=216|8=FIX.4.4|9=150|35=8|49=SENDER|56=EXCH_Z|34=97|52=20260101-00:00:00.970|37=OR4XL9967I6Y|17=EXUJ7YKTXG4A|150=F|39=2|55=MA|54=2|38=5|32=5|31=187.09|151=0|14=5|6=187.09|10=240|8=FIX.4.4|9=132|35=8|49=ALGO_A|56=EXCH_Z|34=98|52=20260101-00:00:00.980|37=ORYTN02YC0MD|17=EXICVWV8LW2Q|150=0|39=0|55=PG|54=2|38=10|151=10|14=0|6=0|10=187|8=FIX.4.4|9=140|35=D|49=ALGO_A|56=EXCH_Z|34=99|52=20260101-00:00:00.990|11=CLDW2ZCFZW0L|21=1|55=TSLA|54=1|60=20260101-00:00:00.990|38=10|40=2|44=76.46|59=1|10=161|8=FIX.4.4|9=162|35=8|49=SENDER|56=TARGET|34=100|52=20260101-00:00:01.000|37=ORMDVLNKND66|17=EX9UGNEKRCPP|150=F|39=2|55=SPY|54=2|38=5000|32=631|31=112.95|151=4369|14=631|6=112.95|10=140|8=FIX.4.4|9=134|35=D|49=ALGO_A|56=BROKER_X|34=101|52=20260101-00:00:01.010|11=CLQEAO4N5PP3|21=1|55=JPM|54=2|60=20260101-00:00:01.010|38=100|40=1|59=3|10=076|8=FIX.4.4|9=140|35=8|49=HFT01|56=BROKER_X|34=102|52=20260101-00:00:01.020|37=ORLK2N7H9G1A|17=EX07H23C42YF|150=4|39=4|55=ABBV|54=1|38=1000|151=1000|14=0|6=0|10=113|8=FIX.4.4|9=158|35=8|49=ALGO_A|56=EXCH_Z|34=103|52=20260101-00:00:01.030|37=ORT2M6TWD1XM|17=EXXB9YO18PAJ|150=F|39=2|55=IWM|54=2|38=500|32=383|31=94.86|151=117|14=383|6=94.86|10=204|8=FIX.4.4|9=129|35=D|49=HFT01|56=EXCH_Z|34=104|52=20260101-00:00:01.040|11=CL1VSMADO8E7|21=1|55=V|54=2|60=20260101-00:00:01.040|38=200|40=1|59=1|10=171|8=FIX.4.4|9=161|35=8|49=HFT01|56=EXCH_Z|34=105|52=20260101-00:00:01.050|37=ORLK3E4XYF9I|17=EXGFU8IOGXPB|150=F|39=2|55=JNJ|54=1|38=5000|32=3683|31=95.13|151=1317|14=3683|6=95.13|10=013|8=FIX.4.4|9=285|35=W|49=SENDER|56=BROKER_X|34=106|52=20260101-00:00:01.060|262=CLH13CD5GLQJ|55=QQQ|268=8|269=1|270=140.10|271=10000|269=0|270=25.76|271=10000|269=0|270=430.31|271=100|269=0|270=140.32|271=75|269=1|270=43.00|271=50|269=1|270=87.34|271=500|269=1|270=30.47|271=50|269=0|270=97.85|271=200|10=161|8=FIX.4.4|9=74|35=1|49=ALGO_A|56=TARGET|34=107|52=20260101-00:00:01.070|112=CL58RHNUXORZ|10=011|8=FIX.4.4|9=134|35=D|49=BUYSIDE1|56=ECN_Y|34=108|52=20260101-00:00:01.080|11=CLBIK2U1RSUJ|21=1|55=MRK|54=1|60=20260101-00:00:01.080|38=5000|40=1|59=0|10=075|8=FIX.4.4|9=74|35=1|49=SENDER|56=EXCH_Z|34=109|52=20260101-00:00:01.090|112=CLT9D31K9QM3|10=180|8=FIX.4.4|9=131|35=D|49=ALGO_A|56=ECN_Y|34=110|52=20260101-00:00:01.100|11=CL4VPW232UTV|21=1|55=WMT|54=1|60=20260101-00:00:01.100|38=200|40=1|59=0|10=128|8=FIX.4.4|9=58|35=5|49=BUYSIDE2|56=ECN_Y|34=111|52=20260101-00:00:01.110|10=244|8=FIX.4.4|9=334|35=W|49=SENDER|56=BROKER_X|34=112|52=20260101-00:00:01.120|262=CL82795E5IZ3|55=IBM|268=10|269=1|270=26.16|271=500|269=1|270=83.11|271=10|269=1|270=102.48|271=200|269=1|270=249.28|271=5|269=0|270=178.62|271=200|269=0|270=195.15|271=500|269=0|270=98.42|271=100|269=1|270=107.20|271=1000|269=1|270=11.41|271=100|269=0|270=132.03|271=200|10=011|8=FIX.4.4|9=187|35=D|49=BUYSIDE1|56=EXCH_Z|34=113|52=20260101-00:00:01.130|11=CLXZAREIYAZ3|21=1|55=CRM|54=2|60=20260101-00:00:01.130|38=100|40=1|59=0|78=3|79=ACCT00|80=33|79=ACCT01|80=33|79=ACCT02|80=34|10=010|8=FIX.4.4|9=133|35=D|49=SENDER|56=TARGET|34=114|52=20260101-00:00:01.140|11=CLL5E11E9FTA|21=1|55=WMT|54=1|60=20260101-00:00:01.140|38=1000|40=1|59=1|10=175|8=FIX.4.4|9=131|35=D|49=HFT01|56=EXCH_Z|34=115|52=20260101-00:00:01.150|11=CL4DD1VN8LFJ|21=1|55=NVDA|54=1|60=20260101-00:00:01.150|38=75|40=1|59=3|10=078|8=FIX.4.4|9=234|35=W|49=SENDER|56=ECN_Y|34=116|52=20260101-00:00:01.160|262=CLHVGOX22INI|55=META|268=6|269=0|270=115.34|271=50|269=1|270=101.94|271=5000|269=1|270=83.47|271=5000|269=0|270=63.91|271=5000|269=0|270=55.98|271=10|269=1|270=273.07|271=75|10=112|8=FIX.4.4|9=156|35=8|49=BUYSIDE2|56=BROKER_X|34=117|52=20260101-00:00:01.170|37=OREZZF8S2ZGE|17=EX2J51B3JCZU|150=F|39=2|55=META|54=2|38=10|32=8|31=84.47|151=2|14=8|6=84.47|10=166|8=FIX.4.4|9=143|35=D|49=ALGO_A|56=BROKER_X|34=118|52=20260101-00:00:01.180|11=CLNJDU0ISB5I|21=1|55=SPY|54=2|60=20260101-00:00:01.180|38=200|40=2|44=82.35|59=0|10=043|8=FIX.4.4|9=69|35=A|49=SENDER|56=EXCH_Z|34=119|52=20260101-00:00:01.190|98=0|108=10|10=246|8=FIX.4.4|9=156|35=8|49=SENDER|56=TARGET|34=120|52=20260101-00:00:01.200|37=ORG298CQK4LT|17=EXAHUKWQVR1H|150=F|39=2|55=HD|54=2|38=100|32=20|31=282.65|151=80|14=20|6=282.65|10=248|8=FIX.4.4|9=161|35=8|49=SENDER|56=ECN_Y|34=121|52=20260101-00:00:01.210|37=ORAX40DTIRC9|17=EXZD76SZN9DD|150=F|39=2|55=JPM|54=1|38=5000|32=3231|31=26.74|151=1769|14=3231|6=26.74|10=004|8=FIX.4.4|9=157|35=8|49=BUYSIDE2|56=EXCH_Z|34=122|52=20260101-00:00:01.220|37=ORZ0LJCH2VFF|17=EXQOT8HLJEFY|150=F|39=2|55=AMZN|54=2|38=50|32=14|31=61.02|151=36|14=14|6=61.02|10=196|8=FIX.4.4|9=78|35=1|49=BUYSIDE2|56=BROKER_X|34=123|52=20260101-00:00:01.230|112=CLDIMSYJ9BOQ|10=050|8=FIX.4.4|9=59|35=0|49=BUYSIDE1|56=TARGET|34=124|52=20260101-00:00:01.240|10=048|8=FIX.4.4|9=134|35=D|49=SENDER|56=BROKER_X|34=125|52=20260101-00:00:01.250|11=CLE3NWXUJ3AC|21=1|55=ADBE|54=1|60=20260101-00:00:01.250|38=50|40=1|59=0|10=108|8=FIX.4.4|9=135|35=8|49=BUYSIDE1|56=EXCH_Z|34=126|52=20260101-00:00:01.260|37=OR3OBYGHGK5B|17=EXWIKOTCKEH5|150=0|39=0|55=HD|54=2|38=10|151=10|14=0|6=0|10=066|8=FIX.4.4|9=330|35=W|49=SENDER|56=EXCH_Z|34=127|52=20260101-00:00:01.270|262=CL2MTR6SNGLH|55=AVGO|268=10|269=0|270=221.81|271=200|269=0|270=133.42|271=5|269=0|270=9.36|271=50|269=0|270=58.55|271=200|269=0|270=153.04|271=10000|269=0|270=110.69|271=1000|269=1|270=21.56|271=5|269=1|270=62.10|271=50|269=1|270=138.01|271=10|269=1|270=272.89|271=500|10=186|8=FIX.4.4|9=262|35=W|49=BUYSIDE2|56=ECN_Y|34=128|52=20260101-00:00:01.280|262=CLEF828XG8Y7|55=KO|268=7|269=0|270=338.45|271=500|269=1|270=156.84|271=50|269=0|270=589.69|271=10000|269=0|270=123.21|271=1000|269=0|270=77.38|271=200|269=1|270=536.08|271=1000|269=0|270=64.76|271=10|10=078|8=FIX.4.4|9=130|35=D|49=SENDER|56=EXCH_Z|34=129|52=20260101-00:00:01.290|11=CLPPFO5MN32U|21=1|55=PG|54=1|60=20260101-00:00:01.290|38=50|40=1|59=3|10=091|8=FIX.4.4|9=131|35=D|49=BUYSIDE2|56=ECN_Y|34=130|52=20260101-00:00:01.300|11=CL8CGN0T6DVW|21=1|55=SPY|54=1|60=20260101-00:00:01.300|38=5|40=1|59=1|10=166|8=FIX.4.4|9=133|35=D|49=BUYSIDE1|56=TARGET|34=131|52=20260101-00:00:01.310|11=CLDHGZZ0JKIB|21=1|55=QQQ|54=2|60=20260101-00:00:01.310|38=50|40=1|59=3|10=041|8=FIX.4.4|9=155|35=8|49=HFT01|56=BROKER_X|34=132|52=20260101-00:00:01.320|37=ORDHW9RE2Q6J|17=EXXNNNGBPJ4U|150=F|39=2|55=V|54=1|38=100|32=97|31=325.60|151=3|14=97|6=325.60|10=235|8=FIX.4.4|9=194|35=D|49=HFT01|56=BROKER_X|34=133|52=20260101-00:00:01.330|11=CLT43PT5R5RC|21=1|55=AMZN|54=2|60=20260101-00:00:01.330|38=5000|40=1|59=0|78=3|79=ACCT00|80=1666|79=ACCT01|80=1666|79=ACCT02|80=1668|10=044|8=FIX.4.4|9=136|35=8|49=HFT01|56=BROKER_X|34=134|52=20260101-00:00:01.340|37=OR9W4J66CNOL|17=EXJQ52WSPOFV|150=0|39=0|55=TSLA|54=1|38=50|151=50|14=0|6=0|10=130|8=FIX.4.4|9=69|35=A|49=ALGO_A|56=TARGET|34=135|52=20260101-00:00:01.350|98=0|108=30|10=220|8=FIX.4.4|9=76|35=1|49=BUYSIDE2|56=EXCH_Z|34=136|52=20260101-00:00:01.360|112=CLJXURGOWYOO|10=223|8=FIX.4.4|9=129|35=F|49=BUYSIDE1|56=TARGET|34=137|52=20260101-00:00:01.370|41=CL076A3KKRZD|11=CL5E9P3JPXGH|55=ORCL|54=2|60=20260101-00:00:01.370|10=150|8=FIX.4.4|9=59|35=0|49=BUYSIDE2|56=TARGET|34=138|52=20260101-00:00:01.380|10=059|8=FIX.4.4|9=132|35=D|49=ALGO_A|56=EXCH_Z|34=139|52=20260101-00:00:01.390|11=CLE45BG34IQ7|21=1|55=JNJ|54=2|60=20260101-00:00:01.390|38=100|40=1|59=0|10=135|8=FIX.4.4|9=142|35=D|49=SENDER|56=TARGET|34=140|52=20260101-00:00:01.400|11=CLIRQ8RTM4J3|21=1|55=NVDA|54=2|60=20260101-00:00:01.400|38=100|40=2|44=60.13|59=3|10=150|8=FIX.4.4|9=164|35=8|49=ALGO_A|56=TARGET|34=141|52=20260101-00:00:01.410|37=ORIV7ZZJ64QH|17=EXKSWVA984UV|150=F|39=2|55=LLY|54=2|38=5000|32=2446|31=493.54|151=2554|14=2446|6=493.54|10=004|8=FIX.4.4|9=228|35=D|49=BUYSIDE2|56=ECN_Y|34=142|52=20260101-00:00:01.420|11=CLJZ6KF1622V|21=1|55=CVX|54=2|60=20260101-00:00:01.420|38=100|40=2|44=242.27|59=0|78=5|79=ACCT00|80=20|79=ACCT01|80=20|79=ACCT02|80=20|79=ACCT03|80=20|79=ACCT04|80=20|10=143|8=FIX.4.4|9=69|35=2|49=HFT01|56=EXCH_Z|34=143|52=20260101-00:00:01.430|7=266|16=293|10=162|8=FIX.4.4|9=59|35=0|49=ALGO_A|56=BROKER_X|34=144|52=20260101-00:00:01.440|10=102|8=FIX.4.4|9=139|35=8|49=ALGO_A|56=BROKER_X|34=145|52=20260101-00:00:01.450|37=ORKQ00U686XI|17=EXI5P5NVQEBW|150=0|39=0|55=META|54=2|38=200|151=200|14=0|6=0|10=054|8=FIX.4.4|9=129|35=D|49=HFT01|56=ECN_Y|34=146|52=20260101-00:00:01.460|11=CLO5F9M969F5|21=1|55=UNH|54=1|60=20260101-00:00:01.460|38=10|40=1|59=3|10=147|8=FIX.4.4|9=132|35=D|49=SENDER|56=EXCH_Z|34=147|52=20260101-00:00:01.470|11=CLJ1G1R1DWWO|21=1|55=SPY|54=1|60=20260101-00:00:01.470|38=500|40=1|59=1|10=232|8=FIX.4.4|9=154|35=8|49=SENDER|56=BROKER_X|34=148|52=20260101-00:00:01.480|37=ORI5LDSLCB8Q|17=EXSSPYE9R1F6|150=F|39=2|55=IBM|54=2|38=5|32=1|31=103.89|151=4|14=1|6=103.89|10=013|8=FIX.4.4|9=137|35=8|49=BUYSIDE1|56=TARGET|34=149|52=20260101-00:00:01.490|37=ORNXB5JTB9XX|17=EXAYPNTRFZWK|150=0|39=0|55=TSLA|54=1|38=75|151=75|14=0|6=0|10=100|8=FIX.4.4|9=180|35=D|49=SENDER|56=TARGET|34=150|52=20260101-00:00:01.500|11=CLK2RV239MOF|21=1|55=QQQ|54=1|60=20260101-00:00:01.500|38=500|40=2|44=96.09|59=3|78=2|79=ACCT00|80=250|79=ACCT01|80=250|10=255|8=FIX.4.4|9=200|35=D|49=SENDER|56=TARGET|34=151|52=20260101-00:00:01.510|11=CL0DJI9KQDGB|21=1|55=LLY|54=2|60=20260101-00:00:01.510|38=50|40=1|59=3|78=4|79=ACCT00|80=12|79=ACCT01|80=12|79=ACCT02|80=12|79=ACCT03|80=14|10=038|8=FIX.4.4|9=59|35=0|49=BUYSIDE2|56=EXCH_Z|34=152|52=20260101-00:00:01.520|10=077|8=FIX.4.4|9=57|35=0|49=SENDER|56=TARGET|34=153|52=20260101-00:00:01.530|10=173|8=FIX.4.4|9=156|35=8|49=ALGO_A|56=ECN_Y|34=154|52=20260101-00:00:01.540|37=OR5D3GO8JN42|17=EXX2EZC7FOV2|150=F|39=2|55=ADBE|54=1|38=200|32=47|31=70.26|151=153|14=47|6=70.26|10=203|8=FIX.4.4|9=262|35=W|49=ALGO_A|56=TARGET|34=155|52=20260101-00:00:01.550|262=CL5506RR5PCX|55=AAPL|268=7|269=0|270=62.47|271=10000|269=0|270=71.01|271=1000|269=1|270=186.15|271=50|269=0|270=100.93|271=1000|269=0|270=31.57|271=75|269=1|270=34.23|271=500|269=0|270=35.16|271=10000|10=039|8=FIX.4.4|9=142|35=D|49=SENDER|56=EXCH_Z|34=156|52=20260101-00:00:01.560|11=CL0AOBT328W6|21=1|55=MA|54=2|60=20260101-00:00:01.560|38=1000|40=2|44=262.65|59=1|10=075|8=FIX.4.4|9=157|35=8|49=HFT01|56=ECN_Y|34=157|52=20260101-00:00:01.570|37=ORZE1HM38KSZ|17=EXBFFZZDVG7O|150=F|39=2|55=NFLX|54=2|38=200|32=49|31=123.61|151=151|14=49|6=123.61|10=086|8=FIX.4.4|9=57|35=0|49=SENDER|56=EXCH_Z|34=158|52=20260101-00:00:01.580|10=209|8=FIX.4.4|9=160|35=8|49=ALGO_A|56=BROKER_X|34=159|52=20260101-00:00:01.590|37=OR8A0TPV726Y|17=EXG3DXVL5PVY|150=F|39=2|55=HD|54=1|38=1000|32=281|31=86.28|151=719|14=281|6=86.28|10=054|8=FIX.4.4|9=145|35=D|49=BUYSIDE1|56=BROKER_X|34=160|52=20260101-00:00:01.600|11=CLOZ0KZ4Z7WH|21=1|55=LLY|54=2|60=20260101-00:00:01.600|38=200|40=2|44=37.85|59=1|10=199|8=FIX.4.4|9=165|35=W|49=BUYSIDE2|56=EXCH_Z|34=161|52=20260101-00:00:01.610|262=CLU7ZY6T5PAD|55=PEP|268=3|269=0|270=22.40|271=100|269=1|270=162.43|271=5000|269=0|270=69.80|271=10000|10=037|8=FIX.4.4|9=76|35=1|49=ALGO_A|56=BROKER_X|34=162|52=20260101-00:00:01.620|112=CL0UI22KX7N8|10=089|8=FIX.4.4|9=59|35=5|49=BUYSIDE2|56=TARGET|34=163|52=20260101-00:00:01.630|10=060|8=FIX.4.4|9=159|35=8|49=ALGO_A|56=BROKER_X|34=164|52=20260101-00:00:01.640|37=OR18KGYGGSNP|17=EXUEVJLZFFLB|150=F|39=2|55=ABBV|54=2|38=75|32=63|31=227.55|151=12|14=63|6=227.55|10=111|8=FIX.4.4|9=56|35=0|49=ALGO_A|56=ECN_Y|34=165|52=20260101-00:00:01.650|10=123|8=FIX.4.4|9=136|35=8|49=BUYSIDE1|56=EXCH_Z|34=166|52=20260101-00:00:01.660|37=ORTOM5XLK8WR|17=EXU1XEMIX7IB|150=0|39=0|55=CVX|54=1|38=50|151=50|14=0|6=0|10=236|8=FIX.4.4|9=131|35=D|49=ALGO_A|56=ECN_Y|34=167|52=20260101-00:00:01.670|11=CLAS1SSRKXLC|21=1|55=TSLA|54=2|60=20260101-00:00:01.670|38=50|40=1|59=1|10=221|8=FIX.4.4|9=57|35=5|49=ALGO_A|56=TARGET|34=168|52=20260101-00:00:01.680|10=192|8=FIX.4.4|9=218|35=W|49=BUYSIDE1|56=EXCH_Z|34=169|52=20260101-00:00:01.690|262=CL4H350P3CYA|55=XOM|268=5|269=0|270=248.07|271=10000|269=0|270=257.80|271=1000|269=1|270=90.60|271=10|269=0|270=165.43|271=10000|269=0|270=133.92|271=5000|10=127|8=FIX.4.4|9=141|35=8|49=SENDER|56=EXCH_Z|34=170|52=20260101-00:00:01.700|37=ORFH024KWK58|17=EX5X8A5FBUOT|150=0|39=0|55=NVDA|54=2|38=10000|151=10000|14=0|6=0|10=027|8=FIX.4.4|9=137|35=8|49=ALGO_A|56=BROKER_X|34=171|52=20260101-00:00:01.710|37=ORFH4GG24479|17=EXQTKCD0RLEX|150=0|39=0|55=TSLA|54=2|38=75|151=75|14=0|6=0|10=195|8=FIX.4.4|9=161|35=8|49=BUYSIDE2|56=BROKER_X|34=172|52=20260101-00:00:01.720|37=ORUNLPAIH0P4|17=EXE05QMKTGV4|150=F|39=2|55=JPM|54=1|38=200|32=138|31=96.65|151=62|14=138|6=96.65|10=160|8=FIX.4.4|9=134|35=8|49=ALGO_A|56=EXCH_Z|34=173|52=20260101-00:00:01.730|37=OR1HBJ6TXFO6|17=EXV4ESDNAI89|150=0|39=0|55=WMT|54=1|38=10|151=10|14=0|6=0|10=251|8=FIX.4.4|9=59|35=0|49=BUYSIDE1|56=EXCH_Z|34=174|52=20260101-00:00:01.740|10=084|8=FIX.4.4|9=163|35=8|49=BUYSIDE2|56=ECN_Y|34=175|52=20260101-00:00:01.750|37=ORIYS2N75BXD|17=EX8WJ0UUNNV6|150=F|39=2|55=META|54=1|38=1000|32=530|31=158.71|151=470|14=530|6=158.71|10=201|8=FIX.4.4|9=141|35=8|49=BUYSIDE2|56=EXCH_Z|34=176|52=20260101-00:00:01.760|37=OR25A5PISKFF|17=EXV3XOLEYRVX|150=8|39=8|55=ORCL|54=1|38=5000|151=5000|14=0|6=0|10=236|8=FIX.4.4|9=158|35=8|49=ALGO_A|56=BROKER_X|34=177|52=20260101-00:00:01.770|37=ORCJG8VUAZXK|17=EXDQ95G3V23G|150=F|39=2|55=IWM|54=1|38=50|32=17|31=119.71|151=33|14=17|6=119.71|10=228|8=FIX.4.4|9=167|35=8|49=HFT01|56=BROKER_X|34=178|52=20260101-00:00:01.780|37=ORDH4SPFDRWB|17=EX2SEREV361X|150=F|39=2|55=ORCL|54=2|38=10000|32=6069|31=116.91|151=3931|14=6069|6=116.91|10=133|8=FIX.4.4|9=128|35=F|49=ALGO_A|56=EXCH_Z|34=179|52=20260101-00:00:01.790|41=CLI22NV01ZDE|11=CLRI4K5OGZ2U|55=BRK.B|54=1|60=20260101-00:00:01.790|10=105|8=FIX.4.4|9=129|35=D|49=HFT01|56=ECN_Y|34=180|52=20260101-00:00:01.800|11=CLDPVJTUW9OH|21=1|55=SPY|54=2|60=20260101-00:00:01.800|38=50|40=1|59=3|10=052|8=FIX.4.4|9=142|35=D|49=ALGO_A|56=ECN_Y|34=181|52=20260101-00:00:01.810|11=CL1OE5EI28DS|21=1|55=XOM|54=2|60=20260101-00:00:01.810|38=5000|40=2|44=163.39|59=1|10=104|8=FIX.4.4|9=153|35=8|49=ALGO_A|56=EXCH_Z|34=182|52=20260101-00:00:01.820|37=ORDJNV07OXK8|17=EXC1GRA47SH2|150=F|39=2|55=IWM|54=1|38=10|32=9|31=230.37|151=1|14=9|6=230.37|10=114|8=FIX.4.4|9=203|35=D|49=BUYSIDE1|56=TARGET|34=183|52=20260101-00:00:01.830|11=CL9DJOYOHAZ7|21=1|55=LLY|54=1|60=20260101-00:00:01.830|38=200|40=1|59=3|78=4|79=ACCT00|80=50|79=ACCT01|80=50|79=ACCT02|80=50|79=ACCT03|80=50|10=030|8=FIX.4.4|9=140|35=8|49=HFT01|56=TARGET|34=184|52=20260101-00:00:01.840|37=ORJODCK82853|17=EXUY8U118QQV|150=0|39=0|55=MSFT|54=1|38=10000|151=10000|14=0|6=0|10=165|8=FIX.4.4|9=146|35=D|49=BUYSIDE1|56=BROKER_X|34=185|52=20260101-00:00:01.850|11=CL2OMTZJKO0M|21=1|55=UNH|54=2|60=20260101-00:00:01.850|38=1000|40=2|44=71.74|59=0|10=252|8=FIX.4.4|9=188|35=W|49=BUYSIDE1|56=EXCH_Z|34=186|52=20260101-00:00:01.860|262=CL0IIJI44M2E|55=NVDA|268=4|269=1|270=192.99|271=5000|269=0|270=212.63|271=200|269=1|270=114.55|271=50|269=1|270=56.77|271=50|10=056|8=FIX.4.4|9=141|35=8|49=BUYSIDE1|56=EXCH_Z|34=187|52=20260101-00:00:01.870|37=OR9ZQYAHULWJ|17=EXTIQWNRHZN4|150=0|39=0|55=AVGO|54=2|38=5000|151=5000|14=0|6=0|10=052|8=FIX.4.4|9=132|35=D|49=SENDER|56=ECN_Y|34=188|52=20260101-00:00:01.880|11=CL2T4H20RAPE|21=1|55=CVX|54=1|60=20260101-00:00:01.880|38=1000|40=1|59=3|10=156|8=FIX.4.4|9=159|35=8|49=BUYSIDE1|56=ECN_Y|34=189|52=20260101-00:00:01.890|37=ORRWQMMU7JAE|17=EX58HUXG2MYR|150=F|39=2|55=ADBE|54=1|38=500|32=456|31=51.53|151=44|14=456|6=51.53|10=036|8=FIX.4.4|9=157|35=8|49=BUYSIDE2|56=EXCH_Z|34=190|52=20260101-00:00:01.900|37=ORWU4CFILKJX|17=EXJQ5NV8OGA0|150=F|39=2|55=BAC|54=2|38=50|32=48|31=405.93|151=2|14=48|6=405.93|10=158|8=FIX.4.4|9=59|35=0|49=SENDER|56=BROKER_X|34=191|52=20260101-00:00:01.910|10=104|8=FIX.4.4|9=160|35=8|49=HFT01|56=TARGET|34=192|52=20260101-00:00:01.920|37=ORDWD7OI0PES|17=EXGBM65Q57TE|150=F|39=2|55=UNH|54=1|38=1000|32=606|31=106.51|151=394|14=606|6=106.51|10=123|8=FIX.4.4|9=281|35=W|49=ALGO_A|56=ECN_Y|34=193|52=20260101-00:00:01.930|262=CL6RIDLOFAS1|55=JPM|268=8|269=1|270=53.01|271=1000|269=1|270=30.73|271=100|269=0|270=245.06|271=75|269=1|270=252.59|271=75|269=0|270=228.90|271=500|269=0|270=56.65|271=75|269=1|270=31.52|271=100|269=1|270=88.94|271=10000|10=206|8=FIX.4.4|9=141|35=D|49=SENDER|56=TARGET|34=194|52=20260101-00:00:01.940|11=CLGDJZ0IFRML|21=1|55=QQQ|54=1|60=20260101-00:00:01.940|38=200|40=2|44=78.34|59=0|10=148|8=FIX.4.4|9=133|35=8|49=ALGO_A|56=EXCH_Z|34=195|52=20260101-00:00:01.950|37=ORG6JNA9ZN9I|17=EX9H0DXHO87F|150=0|39=0|55=AMZN|54=1|38=5|151=5|14=0|6=0|10=217|8=FIX.4.4|9=57|35=0|49=ALGO_A|56=TARGET|34=196|52=20260101-00:00:01.960|10=189|8=FIX.4.4|9=155|35=8|49=HFT01|56=ECN_Y|34=197|52=20260101-00:00:01.970|37=ORA2VOI8UYYF|17=EX1IRYM81CMF|150=F|39=2|55=TSLA|54=1|38=200|32=33|31=64.29|151=167|14=33|6=64.29|10=230|8=FIX.4.4|9=142|35=D|49=HFT01|56=BROKER_X|34=198|52=20260101-00:00:01.980|11=CLAN0JBZUTRU|21=1|55=KO|54=2|60=20260101-00:00:01.980|38=200|40=2|44=154.49|59=3|10=208|8=FIX.4.4|9=76|35=1|49=ALGO_A|56=BROKER_X|34=199|52=20260101-00:00:01.990|112=CLCFKJNAWNGA|10=181|8=FIX.4.4|9=76|35=1|49=ALGO_A|56=BROKER_X|34=200|52=20260101-00:00:02.000|112=CLLC83GY1FKO|10=100|8=FIX.4.4|9=155|35=8|49=SENDER|56=BROKER_X|34=201|52=20260101-00:00:02.010|37=ORDGBXNRWVBH|17=EXZA7X73QXM0|150=F|39=2|55=ORCL|54=1|38=5|32=3|31=168.79|151=2|14=3|6=168.79|10=150|8=FIX.4.4|9=56|35=0|49=SENDER|56=ECN_Y|34=202|52=20260101-00:00:02.020|10=105|8=FIX.4.4|9=134|35=D|49=BUYSIDE1|56=TARGET|34=203|52=20260101-00:00:02.030|11=CLDINGXU8UU0|21=1|55=KO|54=1|60=20260101-00:00:02.030|38=1000|40=1|59=1|10=052|8=FIX.4.4|9=56|35=0|49=HFT01|56=TARGET|34=204|52=20260101-00:00:02.040|10=040|8=FIX.4.4|9=162|35=8|49=ALGO_A|56=EXCH_Z|34=205|52=20260101-00:00:02.050|37=OR76T94OW3LI|17=EXTNT0MQ8ABK|150=F|39=2|55=MSFT|54=2|38=5000|32=4241|31=76.33|151=759|14=4241|6=76.33|10=121|8=FIX.4.4|9=141|35=8|49=BUYSIDE2|56=BROKER_X|34=206|52=20260101-00:00:02.060|37=ORDQFJ6IJKUU|17=EXHCLRR6Z3DX|150=4|39=4|55=AMZN|54=1|38=100|151=100|14=0|6=0|10=020|8=FIX.4.4|9=57|35=0|49=ALGO_A|56=EXCH_Z|34=207|52=20260101-00:00:02.070|10=201|8=FIX.4.4|9=158|35=8|49=SENDER|56=BROKER_X|34=208|52=20260101-00:00:02.080|37=OR047WWBSLUL|17=EXZFY981UDP2|150=F|39=2|55=V|54=2|38=200|32=34|31=249.99|151=166|14=34|6=249.99|10=205|8=FIX.4.4|9=163|35=8|49=ALGO_A|56=EXCH_Z|34=209|52=20260101-00:00:02.090|37=OR1EEURXHW0I|17=EXC1L7DYPMLV|150=F|39=2|55=MSFT|54=1|38=5000|32=2498|31=85.52|151=2502|14=2498|6=85.52|10=254|8=FIX.4.4|9=165|35=8|49=BUYSIDE2|56=BROKER_X|34=210|52=20260101-00:00:02.100|37=OR14EB8753AY|17=EXEQAHTHSJR0|150=F|39=2|55=V|54=2|38=10000|32=302|31=171.68|151=9698|14=302|6=171.68|10=227|8=FIX.4.4|9=130|35=D|49=SENDER|56=ECN_Y|34=211|52=20260101-00:00:02.110|11=CLHZJQ8CXX6M|21=1|55=TSLA|54=1|60=20260101-00:00:02.110|38=5|40=1|59=1|10=135|8=FIX.4.4|9=133|35=8|49=SENDER|56=ECN_Y|34=212|52=20260101-00:00:02.120|37=ORRVDH8UZB7K|17=EXR0AYMK99JC|150=4|39=4|55=BAC|54=2|38=75|151=75|14=0|6=0|10=183|8=FIX.4.4|9=125|35=F|49=SENDER|56=ECN_Y|34=213|52=20260101-00:00:02.130|41=CLIMOE0SY5YP|11=CLUPLVQEXUYH|55=JPM|54=2|60=20260101-00:00:02.130|10=061|8=FIX.4.4|9=231|35=D|49=BUYSIDE1|56=ECN_Y|34=214|52=20260101-00:00:02.140|11=CLCTZG4FBL98|21=1|55=ABBV|54=1|60=20260101-00:00:02.140|38=10000|40=1|59=1|78=5|79=ACCT00|80=2000|79=ACCT01|80=2000|79=ACCT02|80=2000|79=ACCT03|80=2000|79=ACCT04|80=2000|10=065|8=FIX.4.4|9=61|35=0|49=BUYSIDE2|56=BROKER_X|34=215|52=20260101-00:00:02.150|10=225|8=FIX.4.4|9=59|35=0|49=SENDER|56=BROKER_X|34=216|52=20260101-00:00:02.160|10=100|8=FIX.4.4|9=145|35=8|49=BUYSIDE1|56=BROKER_X|34=217|52=20260101-00:00:02.170|37=ORYMYRSVZN4R|17=EXEGB1AJO091|150=0|39=0|55=META|54=2|38=10000|151=10000|14=0|6=0|10=163|8=FIX.4.4|9=141|35=8|49=HFT01|56=BROKER_X|34=218|52=20260101-00:00:02.180|37=ORP1V3ZO7UTX|17=EXZBDQ55IT9B|150=8|39=8|55=PEP|54=2|38=10000|151=10000|14=0|6=0|10=111|8=FIX.4.4|9=133|35=D|49=HFT01|56=EXCH_Z|34=219|52=20260101-00:00:02.190|11=CL51KFK7Y6QX|21=1|55=NVDA|54=2|60=20260101-00:00:02.190|38=5000|40=1|59=0|10=194|8=FIX.4.4|9=138|35=8|49=BUYSIDE1|56=EXCH_Z|34=220|52=20260101-00:00:02.200|37=ORVZHQJY62ZE|17=EXEQNSN2S8NN|150=0|39=0|55=WMT|54=1|38=500|151=500|14=0|6=0|10=076|8=FIX.4.4|9=128|35=F|49=ALGO_A|56=BROKER_X|34=221|52=20260101-00:00:02.210|41=CLFF1BL08KG6|11=CL8A1ARR3VRH|55=SPY|54=2|60=20260101-00:00:02.210|10=096|8=FIX.4.4|9=134|35=D|49=BUYSIDE1|56=ECN_Y|34=222|52=20260101-00:00:02.220|11=CLWU3BFXB4Y4|21=1|55=ABBV|54=1|60=20260101-00:00:02.220|38=200|40=1|59=3|10=051|8=FIX.4.4|9=69|35=A|49=SENDER|56=TARGET|34=223|52=20260101-00:00:02.230|98=0|108=30|10=214|8=FIX.4.4|9=74|35=2|49=BUYSIDE2|56=BROKER_X|34=224|52=20260101-00:00:02.240|7=166|16=210|10=049|8=FIX.4.4|9=56|35=5|49=ALGO_A|56=ECN_Y|34=225|52=20260101-00:00:02.250|10=122|8=FIX.4.4|9=68|35=A|49=SENDER|56=ECN_Y|34=226|52=20260101-00:00:02.260|98=0|108=30|10=162|8=FIX.4.4|9=144|35=D|49=ALGO_A|56=TARGET|34=227|52=20260101-00:00:02.270|11=CLKEZJSSZWD0|21=1|55=NVDA|54=2|60=20260101-00:00:02.270|38=1000|40=2|44=216.61|59=0|10=070|8=FIX.4.4|9=59|35=0|49=BUYSIDE2|56=EXCH_Z|34=228|52=20260101-00:00:02.280|10=085|8=FIX.4.4|9=263|35=W|49=BUYSIDE2|56=ECN_Y|34=229|52=20260101-00:00:02.290|262=CL7WR0R35IKG|55=BRK.B|268=7|269=0|270=78.49|271=75|269=1|270=83.34|271=5000|269=0|270=23.84|271=100|269=1|270=100.84|271=5|269=0|270=146.53|271=10000|269=0|270=175.11|271=200|269=1|270=146.28|271=1000|10=165|8=FIX.4.4|9=125|35=F|49=ALGO_A|56=ECN_Y|34=230|52=20260101-00:00:02.300|41=CLQ37CSUYTAU|11=CLL62CF4MNTF|55=PEP|54=1|60=20260101-00:00:02.300|10=185|8=FIX.4.4|9=237|35=W|49=BUYSIDE2|56=TARGET|34=231|52=20260101-00:00:02.310|262=CLJD5N3KSGNB|55=JNJ|268=6|269=0|270=91.91|271=1000|269=0|270=194.35|271=200|269=0|270=149.93|271=5000|269=0|270=31.78|271=10|269=0|270=75.84|271=10000|269=0|270=12.62|271=10|10=239|8=FIX.4.4|9=143|35=D|49=BUYSIDE1|56=ECN_Y|34=232|52=20260101-00:00:02.320|11=CLHKT1YJFE8U|21=1|55=TSLA|54=2|60=20260101-00:00:02.320|38=75|40=2|44=113.24|59=0|10=008|8=FIX.4.4|9=140|35=8|49=ALGO_A|56=ECN_Y|34=233|52=20260101-00:00:02.330|37=ORTBB6BNDOZ6|17=EXWYQMLH13C7|150=4|39=4|55=NFLX|54=2|38=10000|151=10000|14=0|6=0|10=040|8=FIX.4.4|9=158|35=W|49=HFT01|56=TARGET|34=234|52=20260101-00:00:02.340|262=CLQYZQII4W6O|55=XOM|268=3|269=1|270=93.12|271=1000|269=0|270=68.14|271=50|269=1|270=252.05|271=50|10=132|8=FIX.4.4|9=144|35=D|49=BUYSIDE2|56=TARGET|34=235|52=20260101-00:00:02.350|11=CL2TOOWT9NM3|21=1|55=CRM|54=1|60=20260101-00:00:02.350|38=500|40=2|44=114.46|59=3|10=045|8=FIX.4.4|9=210|35=D|49=HFT01|56=TARGET|34=236|52=20260101-00:00:02.360|11=CLVQT3G8CD31|21=1|55=PEP|54=1|60=20260101-00:00:02.360|38=10000|40=1|59=3|78=4|79=ACCT00|80=2500|79=ACCT01|80=2500|79=ACCT02|80=2500|79=ACCT03|80=2500|10=177|8=FIX.4.4|9=135|35=D|49=BUYSIDE1|56=TARGET|34=237|52=20260101-00:00:02.370|11=CL1XQKWQH5K2|21=1|55=ABBV|54=1|60=20260101-00:00:02.370|38=500|40=1|59=0|10=132|8=FIX.4.4|9=59|35=0|49=BUYSIDE2|56=TARGET|34=238|52=20260101-00:00:02.380|10=061|8=FIX.4.4|9=336|35=W|49=HFT01|56=BROKER_X|34=239|52=20260101-00:00:02.390|262=CL4C68AU9DKB|55=CRM|268=10|269=1|270=180.59|271=500|269=1|270=88.88|271=50|269=1|270=32.65|271=200|269=1|270=130.27|271=10|269=0|270=55.74|271=500|269=1|270=477.01|271=1000|269=1|270=113.28|271=200|269=0|270=33.43|271=10000|269=1|270=185.60|271=5000|269=1|270=75.97|271=200|10=143|8=FIX.4.4|9=159|35=8|49=SENDER|56=BROKER_X|34=240|52=20260101-00:00:02.400|37=OR0S41KSSVIW|17=EXXYYTUW6TAQ|150=F|39=2|55=SPY|54=2|38=200|32=147|31=35.73|151=53|14=147|6=35.73|10=151|8=FIX.4.4|9=55|35=0|49=HFT01|56=ECN_Y|34=241|52=20260101-00:00:02.410|10=240|8=FIX.4.4|9=58|35=5|49=BUYSIDE2|56=ECN_Y|34=242|52=20260101-00:00:02.420|10=254|8=FIX.4.4|9=164|35=8|49=ALGO_A|56=BROKER_X|34=243|52=20260101-00:00:02.430|37=ORUXK0AREC2J|17=EXWJJ0V60XNG|150=F|39=2|55=HD|54=2|38=10000|32=7945|31=40.98|151=2055|14=7945|6=40.98|10=252|8=FIX.4.4|9=155|35=8|49=HFT01|56=EXCH_Z|34=244|52=20260101-00:00:02.440|37=OR1IPWH0MX1E|17=EXGOK01TNZRF|150=F|39=2|55=CRM|54=1|38=200|32=4|31=207.58|151=196|14=4|6=207.58|10=204|8=FIX.4.4|9=137|35=8|49=BUYSIDE2|56=ECN_Y|34=245|52=20260101-00:00:02.450|37=ORJ2JVQYIY1S|17=EXY9LAACOSYM|150=0|39=0|55=LLY|54=2|38=200|151=200|14=0|6=0|10=001|8=FIX.4.4|9=154|35=8|49=SENDER|56=TARGET|34=246|52=20260101-00:00:02.460|37=OR4EX6U86ZJQ|17=EX7W7JP61LFC|150=F|39=2|55=GOOGL|54=1|38=5|32=4|31=190.41|151=1|14=4|6=190.41|10=191|8=FIX.4.4|9=135|35=D|49=BUYSIDE1|56=EXCH_Z|34=247|52=20260101-00:00:02.470|11=CLC9HOXDTPWD|21=1|55=ADBE|54=2|60=20260101-00:00:02.470|38=100|40=1|59=1|10=183|8=FIX.4.4|9=160|35=8|49=SENDER|56=TARGET|34=248|52=20260101-00:00:02.480|37=ORXJZ6US7RP4|17=EX22TA83RU7M|150=F|39=2|55=ABBV|54=2|38=1000|32=411|31=26.71|151=589|14=411|6=26.71|10=231|8=FIX.4.4|9=137|35=8|49=SENDER|56=EXCH_Z|34=249|52=20260101-00:00:02.490|37=OR1KHT8XKODY|17=EXR5PGBA9IN2|150=8|39=8|55=ABBV|54=1|38=200|151=200|14=0|6=0|10=186|8=FIX.4.4|9=142|35=D|49=BUYSIDE2|56=TARGET|34=250|52=20260101-00:00:02.500|11=CLMZOHXS75T0|21=1|55=PG|54=1|60=20260101-00:00:02.500|38=10|40=2|44=148.30|59=0|10=163|8=FIX.4.4|9=128|35=F|49=SENDER|56=BROKER_X|34=251|52=20260101-00:00:02.510|41=CLZEGBL2QGV3|11=CLDR2H2P39YL|55=JPM|54=2|60=20260101-00:00:02.510|10=143|8=FIX.4.4|9=76|35=1|49=BUYSIDE1|56=TARGET|34=252|52=20260101-00:00:02.520|112=CLVMEFOZTP7B|10=137|8=FIX.4.4|9=133|35=8|49=SENDER|56=TARGET|34=253|52=20260101-00:00:02.530|37=ORGDX5O31YHX|17=EXSO7VBGR8W2|150=0|39=0|55=KO|54=2|38=50|151=50|14=0|6=0|10=181|8=FIX.4.4|9=133|35=D|49=ALGO_A|56=TARGET|34=254|52=20260101-00:00:02.540|11=CLW59SQWHBEF|21=1|55=SPY|54=1|60=20260101-00:00:02.540|38=1000|40=1|59=0|10=023|8=FIX.4.4|9=151|35=8|49=HFT01|56=ECN_Y|34=255|52=20260101-00:00:02.550|37=ORM21B07G2RE|17=EX6ZVLHYL2LD|150=F|39=2|55=ORCL|54=1|38=5|32=2|31=131.38|151=3|14=2|6=131.38|10=173|8=FIX.4.4|9=131|35=D|49=ALGO_A|56=EXCH_Z|34=256|52=20260101-00:00:02.560|11=CLBPHVGNQGMJ|21=1|55=XOM|54=2|60=20260101-00:00:02.560|38=50|40=1|59=0|10=241|8=FIX.4.4|9=155|35=8|49=HFT01|56=BROKER_X|34=257|52=20260101-00:00:02.570|37=OR1HKF286UTI|17=EXOS5HRQAP5I|150=F|39=2|55=CRM|54=2|38=50|32=38|31=36.65|151=12|14=38|6=36.65|10=243|8=FIX.4.4|9=141|35=8|49=SENDER|56=TARGET|34=258|52=20260101-00:00:02.580|37=OR90SPO3ZDRC|17=EX1YOHMI9AYF|150=4|39=4|55=NFLX|54=1|38=10000|151=10000|14=0|6=0|10=125|8=FIX.4.4|9=74|35=1|49=ALGO_A|56=TARGET|34=259|52=20260101-00:00:02.590|112=CL9QEZG5WZAW|10=012|8=FIX.4.4|9=141|35=D|49=BUYSIDE2|56=EXCH_Z|34=260|52=20260101-00:00:02.600|11=CL1ZWUHYWM7S|21=1|55=MRK|54=1|60=20260101-00:00:02.600|38=5|40=2|44=42.88|59=3|10=236|8=FIX.4.4|9=258|35=W|49=BUYSIDE2|56=BROKER_X|34=261|52=20260101-00:00:02.610|262=CLXZU1EMTX01|55=MA|268=7|269=0|270=8.90|271=5000|269=1|270=71.77|271=200|269=1|270=95.59|271=10|269=1|270=243.51|271=5000|269=1|270=89.63|271=10|269=0|270=268.31|271=10|269=1|270=214.32|271=10|10=016|8=FIX.4.4|9=159|35=8|49=SENDER|56=ECN_Y|34=262|52=20260101-00:00:02.620|37=OROY7RP0AGA2|17=EX4SMUX2RXTT|150=F|39=2|55=NFLX|54=1|38=1000|32=312|31=54.45|151=688|14=312|6=54.45|10=009|8=FIX.4.4|9=233|35=W|49=BUYSIDE1|56=ECN_Y|34=263|52=20260101-00:00:02.630|262=CLINK4FK8WFT|55=UNH|268=6|269=0|270=453.17|271=50|269=0|270=74.58|271=100|269=1|270=36.98|271=5|269=1|270=5.56|271=5000|269=1|270=113.13|271=100|269=1|270=311.93|271=1000|10=076|8=FIX.4.4|9=152|35=8|49=BUYSIDE2|56=TARGET|34=264|52=20260101-00:00:02.640|37=ORO4QDBXVH7K|17=EXATQYDSHLV7|150=F|39=2|55=MRK|54=2|38=5|32=4|31=33.05|151=1|14=4|6=33.05|10=189|8=FIX.4.4|9=137|35=8|49=BUYSIDE2|56=ECN_Y|34=265|52=20260101-00:00:02.650|37=OR95D0P92K38|17=EXP6FVDHR59C|150=4|39=4|55=PEP|54=2|38=500|151=500|14=0|6=0|10=052|8=FIX.4.4|9=157|35=8|49=ALGO_A|56=BROKER_X|34=266|52=20260101-00:00:02.660|37=ORH3KR3KVR0I|17=EX2FKXWEXKG6|150=F|39=2|55=HD|54=2|38=500|32=15|31=43.40|151=485|14=15|6=43.40|10=146|8=FIX.4.4|9=166|35=8|49=ALGO_A|56=EXCH_Z|34=267|52=20260101-00:00:02.670|37=OR5WRYESU4FC|17=EXL5EFJP6MKT|150=F|39=2|55=META|54=1|38=10000|32=8420|31=222.40|151=1580|14=8420|6=222.40|10=101|8=FIX.4.4|9=168|35=8|49=BUYSIDE2|56=ECN_Y|34=268|52=20260101-00:00:02.680|37=ORJZNTMFEK2O|17=EX7FHS32UY84|150=F|39=2|55=BRK.B|54=1|38=10000|32=6838|31=212.69|151=3162|14=6838|6=212.69|10=194|8=FIX.4.4|9=133|35=D|49=SENDER|56=EXCH_Z|34=269|52=20260101-00:00:02.690|11=CLMYFP9S8GK0|21=1|55=BRK.B|54=1|60=20260101-00:00:02.690|38=75|40=1|59=0|10=044|8=FIX.4.4|9=152|35=8|49=SENDER|56=EXCH_Z|34=270|52=20260101-00:00:02.700|37=ORY2C11BD2SC|17=EXEJCY127H6G|150=F|39=2|55=KO|54=1|38=100|32=4|31=55.08|151=96|14=4|6=55.08|10=225|8=FIX.4.4|9=142|35=8|49=ALGO_A|56=BROKER_X|34=271|52=20260101-00:00:02.710|37=ORSC31TZ8G1A|17=EX0774RZGYD4|150=0|39=0|55=PEP|54=2|38=10000|151=10000|14=0|6=0|10=111|8=FIX.4.4|9=136|35=D|49=BUYSIDE2|56=TARGET|34=272|52=20260101-00:00:02.720|11=CLQSRNKZCRNQ|21=1|55=ABBV|54=1|60=20260101-00:00:02.720|38=1000|40=1|59=1|10=006|8=FIX.4.4|9=155|35=8|49=HFT01|56=EXCH_Z|34=273|52=20260101-00:00:02.730|37=ORSYEOZ906GN|17=EXHH4OIPR11V|150=F|39=2|55=IBM|54=2|38=75|32=46|31=206.22|151=29|14=46|6=206.22|10=190|8=FIX.4.4|9=146|35=D|49=BUYSIDE1|56=EXCH_Z|34=274|52=20260101-00:00:02.740|11=CLDJRWEDBCY8|21=1|55=PEP|54=2|60=20260101-00:00:02.740|38=10000|40=2|44=132.99|59=1|10=183|8=FIX.4.4|9=161|35=W|49=SENDER|56=EXCH_Z|34=275|52=20260101-00:00:02.750|262=CL2HXRJM4T8B|55=CRM|268=3|269=0|270=78.81|271=500|269=1|270=93.95|271=5000|269=1|270=187.10|271=500|10=075|8=FIX.4.4|9=133|35=8|49=ALGO_A|56=EXCH_Z|34=276|52=20260101-00:00:02.760|37=ORR4SOR8WM9L|17=EXBB4M0A6MDM|150=0|39=0|55=KO|54=2|38=10|151=10|14=0|6=0|10=169|8=FIX.4.4|9=136|35=D|49=BUYSIDE1|56=BROKER_X|34=277|52=20260101-00:00:02.770|11=CLXV6CKMALQ5|21=1|55=IWM|54=1|60=20260101-00:00:02.770|38=500|40=1|59=3|10=038|8=FIX.4.4|9=158|35=8|49=ALGO_A|56=TARGET|34=278|52=20260101-00:00:02.780|37=OR3DYMS1MWNP|17=EXR424TKB9OI|150=F|39=2|55=NVDA|54=1|38=200|32=184|31=75.55|151=16|14=184|6=75.55|10=186|8=FIX.4.4|9=73|35=1|49=SENDER|56=ECN_Y|34=279|52=20260101-00:00:02.790|112=CLJUTPMC3SKX|10=226|8=FIX.4.4|9=168|35=8|49=ALGO_A|56=BROKER_X|34=280|52=20260101-00:00:02.800|37=OR5WSGRX37JW|17=EX34670CHQI0|150=F|39=2|55=ABBV|54=2|38=10000|32=7134|31=106.08|151=2866|14=7134|6=106.08|10=140|8=FIX.4.4|9=130|35=D|49=HFT01|56=ECN_Y|34=281|52=20260101-00:00:02.810|11=CL3XJVOEGI3Q|21=1|55=CRM|54=1|60=20260101-00:00:02.810|38=500|40=1|59=3|10=022|8=FIX.4.4|9=142|35=W|49=BUYSIDE1|56=BROKER_X|34=282|52=20260101-00:00:02.820|262=CLJB2JTXB02B|55=NVDA|268=2|269=1|270=284.22|271=500|269=1|270=781.84|271=500|10=051|8=FIX.4.4|9=73|35=A|49=BUYSIDE1|56=BROKER_X|34=283|52=20260101-00:00:02.830|98=0|108=10|10=021|8=FIX.4.4|9=326|35=W|49=SENDER|56=ECN_Y|34=284|52=20260101-00:00:02.840|262=CLRDV1L30307|55=MA|268=10|269=0|270=50.07|271=100|269=1|270=39.76|271=5|269=1|270=115.92|271=10|269=1|270=112.12|271=75|269=1|270=51.35|271=100|269=0|270=816.95|271=5|269=0|270=343.47|271=75|269=1|270=110.47|271=200|269=0|270=105.93|271=1000|269=1|270=164.25|271=50|10=080|8=FIX.4.4|9=128|35=F|49=BUYSIDE2|56=EXCH_Z|34=285|52=20260101-00:00:02.850|41=CL2JC2R07LP7|11=CLDFJCP0TLZ1|55=UNH|54=2|60=20260101-00:00:02.850|10=104|8=FIX.4.4|9=59|35=0|49=BUYSIDE1|56=TARGET|34=286|52=20260101-00:00:02.860|10=066|8=FIX.4.4|9=143|35=D|49=SENDER|56=BROKER_X|34=287|52=20260101-00:00:02.870|11=CLIZ1XEVO7Q5|21=1|55=JPM|54=1|60=20260101-00:00:02.870|38=100|40=2|44=33.08|59=1|10=058|8=FIX.4.4|9=157|35=8|49=HFT01|56=BROKER_X|34=288|52=20260101-00:00:02.880|37=ORAAUWIDQJ4B|17=EXWVF8GUAS17|150=F|39=2|55=QQQ|54=1|38=500|32=61|31=73.73|151=439|14=61|6=73.73|10=148|8=FIX.4.4|9=157|35=8|49=HFT01|56=BROKER_X|34=289|52=20260101-00:00:02.890|37=ORV9KYPOFKJW|17=EX6NYQAELYYZ|150=F|39=2|55=CRM|54=2|38=100|32=95|31=171.98|151=5|14=95|6=171.98|10=018|8=FIX.4.4|9=162|35=W|49=SENDER|56=TARGET|34=290|52=20260101-00:00:02.900|262=CLB7QMVY2Z3A|55=IWM|268=3|269=1|270=63.57|271=200|269=0|270=115.51|271=5000|269=1|270=47.47|271=5000|10=098|8=FIX.4.4|9=143|35=D|49=SENDER|56=BROKER_X|34=291|52=20260101-00:00:02.910|11=CLR9KMP6J37S|21=1|55=CRM|54=2|60=20260101-00:00:02.910|38=50|40=2|44=152.38|59=0|10=012|8=FIX.4.4|9=73|35=1|49=HFT01|56=TARGET|34=292|52=20260101-00:00:02.920|112=CLGBGQFQE6RP|10=108|8=FIX.4.4|9=69|35=2|49=HFT01|56=EXCH_Z|34=293|52=20260101-00:00:02.930|7=575|16=607|10=176|8=FIX.4.4|9=139|35=8|49=BUYSIDE2|56=BROKER_X|34=294|52=20260101-00:00:02.940|37=OR403UXH9A1G|17=EX7IRDLK9EN7|150=0|39=0|55=TSLA|54=1|38=10|151=10|14=0|6=0|10=048|8=FIX.4.4|9=76|35=1|49=BUYSIDE1|56=TARGET|34=295|52=20260101-00:00:02.950|112=CLC3XQ8VA8X8|10=089|8=FIX.4.4|9=134|35=8|49=SENDER|56=EXCH_Z|34=296|52=20260101-00:00:02.960|37=ORDJI1OAHNOX|17=EX8FK2076VMD|150=0|39=0|55=MRK|54=1|38=75|151=75|14=0|6=0|10=000|8=FIX.4.4|9=138|35=D|49=HFT01|56=ECN_Y|34=297|52=20260101-00:00:02.970|11=CLUP13WPPBMQ|21=1|55=PG|54=2|60=20260101-00:00:02.970|38=50|40=2|44=347.35|59=1|10=159|8=FIX.4.4|9=164|35=W|49=BUYSIDE2|56=EXCH_Z|34=298|52=20260101-00:00:02.980|262=CLP6RFE64SKB|55=META|268=3|269=0|270=103.30|271=500|269=0|270=83.64|271=100|269=1|270=68.97|271=5000|10=005|8=FIX.4.4|9=135|35=8|49=BUYSIDE2|56=ECN_Y|34=299|52=20260101-00:00:02.990|37=ORVQYWJ85GG0|17=EXV5DTAEGRY5|150=0|39=0|55=QQQ|54=2|38=50|151=50|14=0|6=0|10=126|8=FIX.4.4|9=139|35=8|49=BUYSIDE1|56=TARGET|34=300|52=20260101-00:00:03.000|37=ORG3ZGARFI44|17=EXTD1FPE60QR|150=0|39=0|55=MSFT|54=2|38=500|151=500|14=0|6=0|10=245|8=FIX.4.4|9=76|35=1|49=ALGO_A|56=BROKER_X|34=301|52=20260101-00:00:03.010|112=CLHU4BAWZ940|10=095|8=FIX.4.4|9=333|35=W|49=BUYSIDE2|56=TARGET|34=302|52=20260101-00:00:03.020|262=CLRRVWY3RZTP|55=CVX|268=10|269=0|270=40.21|271=1000|269=0|270=88.48|271=200|269=1|270=69.40|271=200|269=1|270=62.10|271=200|269=1|270=48.60|271=500|269=1|270=402.78|271=200|269=1|270=125.59|271=10|269=1|270=52.67|271=10000|269=1|270=38.94|271=1000|269=1|270=43.75|271=5|10=172|8=FIX.4.4|9=144|35=D|49=BUYSIDE1|56=TARGET|34=303|52=20260101-00:00:03.030|11=CL3MEIUR9211|21=1|55=AVGO|54=1|60=20260101-00:00:03.030|38=50|40=2|44=116.72|59=1|10=230|8=FIX.4.4|9=134|35=8|49=SENDER|56=TARGET|34=304|52=20260101-00:00:03.040|37=ORSGEHN0Z1R5|17=EXFN3EH81A4R|150=4|39=4|55=LLY|54=2|38=10|151=10|14=0|6=0|10=179|8=FIX.4.4|9=128|35=D|49=HFT01|56=ECN_Y|34=305|52=20260101-00:00:03.050|11=CLWI1T2EP768|21=1|55=MRK|54=2|60=20260101-00:00:03.050|38=5|40=1|59=1|10=121|8=FIX.4.4|9=131|35=D|49=SENDER|56=ECN_Y|34=306|52=20260101-00:00:03.060|11=CLL9FC1XX6CW|21=1|55=LLY|54=1|60=20260101-00:00:03.060|38=500|40=1|59=3|10=138|8=FIX.4.4|9=142|35=D|49=BUYSIDE2|56=TARGET|34=307|52=20260101-00:00:03.070|11=CL36VFOX5WWP|21=1|55=KO|54=2|60=20260101-00:00:03.070|38=500|40=2|44=28.98|59=3|10=200|8=FIX.4.4|9=135|35=D|49=BUYSIDE1|56=TARGET|34=308|52=20260101-00:00:03.080|11=CLSLMWA6TJ3K|21=1|55=CRM|54=2|60=20260101-00:00:03.080|38=5000|40=1|59=3|10=139|8=FIX.4.4|9=158|35=8|49=SENDER|56=TARGET|34=309|52=20260101-00:00:03.090|37=ORQUAMI0UZ7X|17=EX4IKY3UFN0D|150=F|39=2|55=JNJ|54=2|38=100|32=100|31=130.32|151=0|14=100|6=130.32|10=121|8=FIX.4.4|9=131|35=D|49=HFT01|56=TARGET|34=310|52=20260101-00:00:03.100|11=CLDPEHCYOU25|21=1|55=QQQ|54=2|60=20260101-00:00:03.100|38=500|40=1|59=0|10=063|8=FIX.4.4|9=71|35=2|49=HFT01|56=BROKER_X|34=311|52=20260101-00:00:03.110|7=706|16=738|10=051|8=FIX.4.4|9=157|35=8|49=ALGO_A|56=TARGET|34=312|52=20260101-00:00:03.120|37=ORZQBFU7E4DN|17=EXKSEKNKBF2P|150=F|39=2|55=ABBV|54=2|38=50|32=19|31=372.21|151=31|14=19|6=372.21|10=108|8=FIX.4.4|9=133|35=8|49=SENDER|56=EXCH_Z|34=313|52=20260101-00:00:03.130|37=ORRLQMN44EEW|17=EX1YF0DWWN6M|150=0|39=0|55=AMZN|54=2|38=5|151=5|14=0|6=0|10=012|8=FIX.4.4|9=55|35=5|49=HFT01|56=ECN_Y|34=314|52=20260101-00:00:03.140|10=247|8=FIX.4.4|9=184|35=W|49=SENDER|56=ECN_Y|34=315|52=20260101-00:00:03.150|262=CLUEUGWUBUGR|55=MSFT|268=4|269=0|270=158.21|271=5|269=1|270=167.58|271=10000|269=1|270=29.31|271=200|269=1|270=126.46|271=5|10=183|8=FIX.4.4|9=160|35=8|49=SENDER|56=TARGET|34=316|52=20260101-00:00:03.160|37=ORTKG1F8YC8G|17=EXZKDF6J76BI|150=F|39=2|55=HD|54=1|38=5000|32=4039|31=70.99|151=961|14=4039|6=70.99|10=180|8=FIX.4.4|9=141|35=D|49=SENDER|56=ECN_Y|34=317|52=20260101-00:00:03.170|11=CLQOROI5J8YI|21=1|55=JPM|54=2|60=20260101-00:00:03.170|38=100|40=2|44=117.81|59=0|10=124|8=FIX.4.4|9=76|35=1|49=ALGO_A|56=BROKER_X|34=318|52=20260101-00:00:03.180|112=CL2FTGI88TB3|10=098|8=FIX.4.4|9=56|35=5|49=ALGO_A|56=ECN_Y|34=319|52=20260101-00:00:03.190|10=130|8=FIX.4.4|9=173|35=D|49=BUYSIDE2|56=ECN_Y|34=320|52=20260101-00:00:03.200|11=CL4NMWVSB0UK|21=1|55=IBM|54=1|60=20260101-00:00:03.200|38=1000|40=1|59=0|78=2|79=ACCT00|80=500|79=ACCT01|80=500|10=228|8=FIX.4.4|9=73|35=1|49=ALGO_A|56=ECN_Y|34=321|52=20260101-00:00:03.210|112=CL5HS258W9ZJ|10=115|8=FIX.4.4|9=181|35=D|49=ALGO_A|56=ECN_Y|34=322|52=20260101-00:00:03.220|11=CLAYXAR6YO6Z|21=1|55=IBM|54=1|60=20260101-00:00:03.220|38=1000|40=2|44=127.24|59=1|78=2|79=ACCT00|80=500|79=ACCT01|80=500|10=077|8=FIX.4.4|9=145|35=D|49=BUYSIDE2|56=EXCH_Z|34=323|52=20260101-00:00:03.230|11=CL3MG1ZAQ7QH|21=1|55=MSFT|54=1|60=20260101-00:00:03.230|38=100|40=2|44=233.25|59=3|10=115|8=FIX.4.4|9=135|35=8|49=BUYSIDE2|56=TARGET|34=324|52=20260101-00:00:03.240|37=ORK6ZHH3O5UR|17=EXTXUYUCECJU|150=0|39=0|55=PG|54=2|38=75|151=75|14=0|6=0|10=153|8=FIX.4.4|9=129|35=F|49=BUYSIDE2|56=BROKER_X|34=325|52=20260101-00:00:03.250|41=CL4A8YWY5APY|11=CLX4L4OESRSB|55=PG|54=1|60=20260101-00:00:03.250|10=016|8=FIX.4.4|9=159|35=8|49=SENDER|56=BROKER_X|34=326|52=20260101-00:00:03.260|37=OR9PCIFLWDR3|17=EXVWMJDIMBM2|150=F|39=2|55=META|54=2|38=200|32=199|31=26.04|151=1|14=199|6=26.04|10=072|8=FIX.4.4|9=309|35=W|49=SENDER|56=EXCH_Z|34=327|52=20260101-00:00:03.270|262=CLUDCBL4CE7P|55=ABBV|268=9|269=1|270=111.65|271=500|269=1|270=39.86|271=10000|269=0|270=88.29|271=500|269=0|270=202.61|271=200|269=0|270=204.19|271=75|269=0|270=128.19|271=500|269=1|270=173.31|271=75|269=0|270=62.92|271=200|269=1|270=127.77|271=50|10=000|8=FIX.4.4|9=160|35=8|49=SENDER|56=BROKER_X|34=328|52=20260101-00:00:03.280|37=ORS44PHH62MY|17=EXZ9VLU8WPFQ|150=F|39=2|55=AMZN|54=2|38=100|32=64|31=143.85|151=36|14=64|6=143.85|10=141|8=FIX.4.4|9=151|35=8|49=HFT01|56=ECN_Y|34=329|52=20260101-00:00:03.290|37=OR3NO3AAMTFP|17=EXW6M9HKHJG4|150=F|39=2|55=HD|54=1|38=75|32=23|31=93.84|151=52|14=23|6=93.84|10=179|8=FIX.4.4|9=153|35=8|49=SENDER|56=ECN_Y|34=330|52=20260101-00:00:03.300|37=OR7KI3X79955|17=EXCF72GNNV9I|150=F|39=2|55=AMZN|54=2|38=10|32=10|31=45.53|151=0|14=10|6=45.53|10=029|8=FIX.4.4|9=339|35=W|49=BUYSIDE2|56=BROKER_X|34=331|52=20260101-00:00:03.310|262=CLLB25485HCQ|55=META|268=10|269=0|270=104.33|271=5000|269=1|270=99.13|271=200|269=1|270=106.45|271=1000|269=1|270=58.51|271=10000|269=0|270=91.30|271=75|269=1|270=84.34|271=50|269=1|270=68.85|271=10|269=1|270=88.46|271=10000|269=0|270=87.72|271=500|269=1|270=92.26|271=1000|10=138|8=FIX.4.4|9=157|35=8|49=BUYSIDE2|56=TARGET|34=332|52=20260101-00:00:03.320|37=ORKSTCJIEMTM|17=EXYJ014GVE4Z|150=F|39=2|55=BAC|54=1|38=1000|32=9|31=35.51|151=991|14=9|6=35.51|10=125|8=FIX.4.4|9=58|35=0|49=BUYSIDE2|56=ECN_Y|34=333|52=20260101-00:00:03.330|10=251|8=FIX.4.4|9=56|35=0|49=HFT01|56=EXCH_Z|34=334|52=20260101-00:00:03.340|10=074|8=FIX.4.4|9=74|35=1|49=SENDER|56=EXCH_Z|34=335|52=20260101-00:00:03.350|112=CLX985I0HIVT|10=222|8=FIX.4.4|9=145|35=D|49=BUYSIDE2|56=BROKER_X|34=336|52=20260101-00:00:03.360|11=CLP7PP4BF5L0|21=1|55=QQQ|54=1|60=20260101-00:00:03.360|38=200|40=2|44=68.14|59=1|10=134|8=FIX.4.4|9=226|35=D|49=ALGO_A|56=TARGET|34=337|52=20260101-00:00:03.370|11=CLUBF99U26UO|21=1|55=PEP|54=2|60=20260101-00:00:03.370|38=200|40=2|44=51.10|59=3|78=5|79=ACCT00|80=40|79=ACCT01|80=40|79=ACCT02|80=40|79=ACCT03|80=40|79=ACCT04|80=40|10=064|8=FIX.4.4|9=156|35=8|49=ALGO_A|56=EXCH_Z|34=338|52=20260101-00:00:03.380|37=ORAH6NHKSQNA|17=EXL6O9EP0O6H|150=F|39=2|55=MA|54=2|38=100|32=40|31=107.23|151=60|14=40|6=107.23|10=250|8=FIX.4.4|9=144|35=D|49=ALGO_A|56=BROKER_X|34=339|52=20260101-00:00:03.390|11=CLSYJAFCO3S6|21=1|55=QQQ|54=2|60=20260101-00:00:03.390|38=1000|40=2|44=94.32|59=0|10=111|8=FIX.4.4|9=160|35=8|49=BUYSIDE2|56=EXCH_Z|34=340|52=20260101-00:00:03.400|37=ORW3GI60Q6GU|17=EXO8I5JWK6Z0|150=F|39=2|55=MA|54=2|38=200|32=127|31=258.12|151=73|14=127|6=258.12|10=203|8=FIX.4.4|9=131|35=D|49=SENDER|56=ECN_Y|34=341|52=20260101-00:00:03.410|11=CLOFHBAWYQMO|21=1|55=JNJ|54=1|60=20260101-00:00:03.410|38=500|40=1|59=1|10=180|8=FIX.4.4|9=157|35=8|49=HFT01|56=TARGET|34=342|52=20260101-00:00:03.420|37=ORCXZPQKF4VG|17=EXE0GYAJPGZ6|150=F|39=2|55=MA|54=1|38=200|32=114|31=153.89|151=86|14=114|6=153.89|10=045|8=FIX.4.4|9=190|35=D|49=SENDER|56=TARGET|34=343|52=20260101-00:00:03.430|11=CLBNHI6HABA3|21=1|55=META|54=2|60=20260101-00:00:03.430|38=1000|40=1|59=1|78=3|79=ACCT00|80=333|79=ACCT01|80=333|79=ACCT02|80=334|10=031|8=FIX.4.4|9=59|35=5|49=SENDER|56=BROKER_X|34=344|52=20260101-00:00:03.440|10=109|8=FIX.4.4|9=57|35=0|49=SENDER|56=EXCH_Z|34=345|52=20260101-00:00:03.450|10=205|8=FIX.4.4|9=142|35=D|49=ALGO_A|56=BROKER_X|34=346|52=20260101-00:00:03.460|11=CL7OPIDLAXAH|21=1|55=PG|54=1|60=20260101-00:00:03.460|38=10|40=2|44=134.35|59=1|10=223|8=FIX.4.4|9=140|35=W|49=SENDER|56=BROKER_X|34=347|52=20260101-00:00:03.470|262=CLO1R9Z27UJD|55=CVX|268=2|269=1|270=148.12|271=200|269=1|270=277.63|271=5000|10=183|8=FIX.4.4|9=204|35=W|49=ALGO_A|56=TARGET|34=348|52=20260101-00:00:03.480|262=CLIW6L01WCNK|55=V|268=5|269=1|270=422.33|271=1000|269=1|270=47.68|271=5|269=1|270=132.36|271=5|269=0|270=202.76|271=75|269=0|270=177.30|271=75|10=181|8=FIX.4.4|9=59|35=0|49=BUYSIDE1|56=EXCH_Z|34=349|52=20260101-00:00:03.490|10=092|8=FIX.4.4|9=133|35=D|49=SENDER|56=EXCH_Z|34=350|52=20260101-00:00:03.500|11=CLCGWFHDV37I|21=1|55=NVDA|54=1|60=20260101-00:00:03.500|38=500|40=1|59=1|10=015|8=FIX.4.4|9=61|35=0|49=BUYSIDE2|56=BROKER_X|34=351|52=20260101-00:00:03.510|10=227|8=FIX.4.4|9=59|35=0|49=BUYSIDE1|56=EXCH_Z|34=352|52=20260101-00:00:03.520|10=080|8=FIX.4.4|9=166|35=8|49=BUYSIDE2|56=EXCH_Z|34=353|52=20260101-00:00:03.530|37=ORC9OGPS0132|17=EXAN417VF0JQ|150=F|39=2|55=NFLX|54=2|38=10000|32=4641|31=81.87|151=5359|14=4641|6=81.87|10=029|8=FIX.4.4|9=145|35=D|49=BUYSIDE1|56=EXCH_Z|34=354|52=20260101-00:00:03.540|11=CLH6A50NOOO0|21=1|55=PEP|54=2|60=20260101-00:00:03.540|38=1000|40=2|44=445.25|59=0|10=055|8=FIX.4.4|9=131|35=8|49=SENDER|56=ECN_Y|34=355|52=20260101-00:00:03.550|37=ORWYZXJQYJV8|17=EX4A1X7OV6SG|150=0|39=0|55=CRM|54=2|38=5|151=5|14=0|6=0|10=177|8=FIX.4.4|9=161|35=8|49=HFT01|56=TARGET|34=356|52=20260101-00:00:03.560|37=ORDU23JH0ZAG|17=EXRD1PPKPGGE|150=F|39=2|55=QQQ|54=2|38=5000|32=1491|31=78.85|151=3509|14=1491|6=78.85|10=252|8=FIX.4.4|9=135|35=D|49=BUYSIDE1|56=BROKER_X|34=357|52=20260101-00:00:03.570|11=CLCG1J6OWW5F|21=1|55=LLY|54=1|60=20260101-00:00:03.570|38=10|40=1|59=1|10=209|8=FIX.4.4|9=144|35=D|49=SENDER|56=BROKER_X|34=358|52=20260101-00:00:03.580|11=CLRYDC1AU9DS|21=1|55=AAPL|54=2|60=20260101-00:00:03.580|38=500|40=2|44=94.12|59=0|10=107|8=FIX.4.4|9=144|35=D|49=BUYSIDE2|56=BROKER_X|34=359|52=20260101-00:00:03.590|11=CL7XNCMLDQZ0|21=1|55=JPM|54=2|60=20260101-00:00:03.590|38=5|40=2|44=289.37|59=3|10=172|8=FIX.4.4|9=157|35=8|49=HFT01|56=EXCH_Z|34=360|52=20260101-00:00:03.600|37=ORXAW7LW580Y|17=EXIR02M77RXZ|150=F|39=2|55=TSLA|54=1|38=200|32=188|31=80.62|151=12|14=188|6=80.62|10=065|8=FIX.4.4|9=130|35=D|49=ALGO_A|56=TARGET|34=361|52=20260101-00:00:03.610|11=CLE2KYT5GQEX|21=1|55=HD|54=1|60=20260101-00:00:03.610|38=75|40=1|59=3|10=083|8=FIX.4.4|9=135|35=8|49=BUYSIDE1|56=ECN_Y|34=362|52=20260101-00:00:03.620|37=OR61HJR6EET0|17=EXDY571VXNZ0|150=0|39=0|55=PEP|54=1|38=10|151=10|14=0|6=0|10=007|8=FIX.4.4|9=194|35=D|49=SENDER|56=ECN_Y|34=363|52=20260101-00:00:03.630|11=CLDD070EN48U|21=1|55=AAPL|54=1|60=20260101-00:00:03.630|38=100|40=2|44=52.80|59=0|78=3|79=ACCT00|80=33|79=ACCT01|80=33|79=ACCT02|80=34|10=157|8=FIX.4.4|9=72|35=1|49=HFT01|56=ECN_Y|34=364|52=20260101-00:00:03.640|112=CL127EXVDA4L|10=239|8=FIX.4.4|9=61|35=0|49=BUYSIDE2|56=BROKER_X|34=365|52=20260101-00:00:03.650|10=237|8=FIX.4.4|9=142|35=D|49=BUYSIDE1|56=TARGET|34=366|52=20260101-00:00:03.660|11=CLVL9E9ZR3RZ|21=1|55=PEP|54=2|60=20260101-00:00:03.660|38=5|40=2|44=267.79|59=0|10=247|8=FIX.4.4|9=78|35=1|49=BUYSIDE1|56=BROKER_X|34=367|52=20260101-00:00:03.670|112=CLZB5GRO9X49|10=017|8=FIX.4.4|9=145|35=D|49=BUYSIDE2|56=EXCH_Z|34=368|52=20260101-00:00:03.680|11=CLOTKZH4OE1U|21=1|55=GOOGL|54=2|60=20260101-00:00:03.680|38=100|40=2|44=92.79|59=1|10=209|8=FIX.4.4|9=158|35=8|49=BUYSIDE1|56=TARGET|34=369|52=20260101-00:00:03.690|37=ORN4D24N9YGC|17=EXMR8ESMPF0I|150=F|39=2|55=BRK.B|54=2|38=50|32=16|31=12.99|151=34|14=16|6=12.99|10=171|8=FIX.4.4|9=140|35=D|49=HFT01|56=TARGET|34=370|52=20260101-00:00:03.700|11=CL15XJXNECRY|21=1|55=IWM|54=1|60=20260101-00:00:03.700|38=75|40=2|44=114.12|59=3|10=011|8=FIX.4.4|9=59|35=0|49=ALGO_A|56=BROKER_X|34=371|52=20260101-00:00:03.710|10=106|8=FIX.4.4|9=141|35=D|49=SENDER|56=ECN_Y|34=372|52=20260101-00:00:03.720|11=CLC62G3AUT3R|21=1|55=BRK.B|54=1|60=20260101-00:00:03.720|38=75|40=2|44=33.34|59=1|10=062|8=FIX.4.4|9=156|35=8|49=BUYSIDE2|56=TARGET|34=373|52=20260101-00:00:03.730|37=ORDEK8G9XIB8|17=EX6KTFRL69VS|150=F|39=2|55=TSLA|54=2|38=10|32=1|31=125.17|151=9|14=1|6=125.17|10=084|8=FIX.4.4|9=154|35=8|49=BUYSIDE1|56=EXCH_Z|34=374|52=20260101-00:00:03.740|37=ORCJN6OCJPZT|17=EXC09ZGNX3VP|150=F|39=2|55=V|54=2|38=75|32=41|31=54.16|151=34|14=41|6=54.16|10=015|8=FIX.4.4|9=72|35=2|49=SENDER|56=BROKER_X|34=375|52=20260101-00:00:03.750|7=445|16=470|10=191|8=FIX.4.4|9=160|35=8|49=SENDER|56=ECN_Y|34=376|52=20260101-00:00:03.760|37=OR62F2JD9I82|17=EXES5V3DMUKJ|150=F|39=2|55=TSLA|54=1|38=5000|32=393|31=82.21|151=4607|14=393|6=82.21|10=186|8=FIX.4.4|9=134|35=8|49=ALGO_A|56=EXCH_Z|34=377|52=20260101-00:00:03.770|37=ORREASFEN0B0|17=EX9ZIVZG92SJ|150=4|39=4|55=CRM|54=2|38=50|151=50|14=0|6=0|10=034|8=FIX.4.4|9=135|35=D|49=BUYSIDE2|56=EXCH_Z|34=378|52=20260101-00:00:03.780|11=CL14WCIDUDK7|21=1|55=AAPL|54=1|60=20260101-00:00:03.780|38=500|40=1|59=1|10=149|8=FIX.4.4|9=229|35=D|49=ALGO_A|56=TARGET|34=379|52=20260101-00:00:03.790|11=CLOW60ZZ0I08|21=1|55=AMZN|54=2|60=20260101-00:00:03.790|38=5000|40=1|59=1|78=5|79=ACCT00|80=1000|79=ACCT01|80=1000|79=ACCT02|80=1000|79=ACCT03|80=1000|79=ACCT04|80=1000|10=253|8=FIX.4.4|9=59|35=5|49=ALGO_A|56=BROKER_X|34=380|52=20260101-00:00:03.800|10=111|8=FIX.4.4|9=159|35=8|49=HFT01|56=EXCH_Z|34=381|52=20260101-00:00:03.810|37=ORG8MY344KRJ|17=EXAWO778S676|150=F|39=2|55=QQQ|54=1|38=5000|32=472|31=80.47|151=4528|14=472|6=80.47|10=087|8=FIX.4.4|9=141|35=D|49=BUYSIDE2|56=TARGET|34=382|52=20260101-00:00:03.820|11=CLA6GMDRDSFE|21=1|55=QQQ|54=2|60=20260101-00:00:03.820|38=5|40=2|44=25.12|59=1|10=154|8=FIX.4.4|9=159|35=8|49=BUYSIDE2|56=TARGET|34=383|52=20260101-00:00:03.830|37=OR9XPF0A5ZDK|17=EXEPLBX889ER|150=F|39=2|55=QQQ|54=2|38=200|32=175|31=88.21|151=25|14=175|6=88.21|10=238|8=FIX.4.4|9=59|35=0|49=BUYSIDE2|56=EXCH_Z|34=384|52=20260101-00:00:03.840|10=091|8=FIX.4.4|9=142|35=D|49=SENDER|56=TARGET|34=385|52=20260101-00:00:03.850|11=CLEMAYB3PVAR|21=1|55=LLY|54=1|60=20260101-00:00:03.850|38=1000|40=2|44=36.48|59=0|10=200|8=FIX.4.4|9=335|35=W|49=BUYSIDE1|56=BROKER_X|34=386|52=20260101-00:00:03.860|262=CLKEJZXPR2D0|55=UNH|268=10|269=0|270=126.41|271=50|269=1|270=277.69|271=10000|269=0|270=82.81|271=75|269=0|270=64.61|271=5000|269=1|270=132.13|271=100|269=1|270=62.55|271=500|269=0|270=76.74|271=5|269=0|270=47.05|271=10000|269=0|270=87.64|271=1000|269=1|270=77.02|271=5|10=045|8=FIX.4.4|9=184|35=D|49=ALGO_A|56=ECN_Y|34=387|52=20260101-00:00:03.870|11=CLIJVDDWVB85|21=1|55=JNJ|54=2|60=20260101-00:00:03.870|38=200|40=1|59=1|78=3|79=ACCT00|80=66|79=ACCT01|80=66|79=ACCT02|80=68|10=064|8=FIX.4.4|9=57|35=0|49=SENDER|56=TARGET|34=388|52=20260101-00:00:03.880|10=193|8=FIX.4.4|9=68|35=A|49=ALGO_A|56=ECN_Y|34=389|52=20260101-00:00:03.890|98=0|108=30|10=184|8=FIX.4.4|9=61|35=0|49=BUYSIDE1|56=BROKER_X|34=390|52=20260101-00:00:03.900|10=232|8=FIX.4.4|9=161|35=8|49=HFT01|56=TARGET|34=391|52=20260101-00:00:03.910|37=ORRS82GJ8K8C|17=EX9G3RTSCPSU|150=F|39=2|55=PEP|54=2|38=5000|32=3284|31=77.47|151=1716|14=3284|6=77.47|10=246|8=FIX.4.4|9=211|35=W|49=BUYSIDE1|56=TARGET|34=392|52=20260101-00:00:03.920|262=CLFHZ52QZSKH|55=AVGO|268=5|269=0|270=222.23|271=5|269=0|270=22.22|271=10000|269=1|270=203.58|271=50|269=1|270=216.01|271=5|269=0|270=175.82|271=100|10=111|8=FIX.4.4|9=138|35=8|49=ALGO_A|56=BROKER_X|34=393|52=20260101-00:00:03.930|37=OR3HJU31FI0N|17=EX6DGG5GR0XA|150=8|39=8|55=WMT|54=1|38=500|151=500|14=0|6=0|10=227|8=FIX.4.4|9=128|35=F|49=HFT01|56=BROKER_X|34=394|52=20260101-00:00:03.940|41=CLCCI68DS03V|11=CLNA31XBIDFW|55=AAPL|54=1|60=20260101-00:00:03.940|10=057|8=FIX.4.4|9=56|35=5|49=SENDER|56=ECN_Y|34=395|52=20260101-00:00:03.950|10=136|8=FIX.4.4|9=76|35=1|49=SENDER|56=BROKER_X|34=396|52=20260101-00:00:03.960|112=CLF163LRITJT|10=144|8=FIX.4.4|9=158|35=8|49=BUYSIDE1|56=TARGET|34=397|52=20260101-00:00:03.970|37=OR6APFXI5N53|17=EXEGDD8MWE77|150=F|39=2|55=AMZN|54=2|38=10|32=10|31=109.60|151=0|14=10|6=109.60|10=126|8=FIX.4.4|9=165|35=8|49=BUYSIDE2|56=ECN_Y|34=398|52=20260101-00:00:03.980|37=ORMD6X73ZCA7|17=EXFXLOZ2RCU8|150=F|39=2|55=AVGO|54=2|38=10000|32=2371|31=46.49|151=7629|14=2371|6=46.49|10=068|8=FIX.4.4|9=136|35=8|49=HFT01|56=EXCH_Z|34=399|52=20260101-00:00:03.990|37=ORVWE77NTTRT|17=EXIDZS13HDNH|150=8|39=8|55=MSFT|54=1|38=500|151=500|14=0|6=0|10=166|8=FIX.4.4|9=138|35=D|49=SENDER|56=ECN_Y|34=400|52=20260101-00:00:04.000|11=CLM42FQ4T7PH|21=1|55=PG|54=1|60=20260101-00:00:04.000|38=5|40=2|44=146.06|59=0|10=125|8=FIX.4.4|9=191|35=D|49=BUYSIDE2|56=TARGET|34=401|52=20260101-00:00:04.010|11=CLZXC45BNCCU|21=1|55=ORCL|54=1|60=20260101-00:00:04.010|38=500|40=1|59=1|78=3|79=ACCT00|80=166|79=ACCT01|80=166|79=ACCT02|80=168|10=179|8=FIX.4.4|9=58|35=0|49=HFT01|56=BROKER_X|34=402|52=20260101-00:00:04.020|10=223|8=FIX.4.4|9=59|35=0|49=BUYSIDE2|56=EXCH_Z|34=403|52=20260101-00:00:04.030|10=075|8=FIX.4.4|9=146|35=D|49=BUYSIDE2|56=TARGET|34=404|52=20260101-00:00:04.040|11=CLF5B1SA3Y5T|21=1|55=BAC|54=1|60=20260101-00:00:04.040|38=10000|40=2|44=100.37|59=1|10=035|8=FIX.4.4|9=134|35=D|49=ALGO_A|56=EXCH_Z|34=405|52=20260101-00:00:04.050|11=CL9EHWHG0U43|21=1|55=NFLX|54=1|60=20260101-00:00:04.050|38=1000|40=1|59=1|10=044|8=FIX.4.4|9=157|35=8|49=HFT01|56=BROKER_X|34=406|52=20260101-00:00:04.060|37=ORJDN2MIFDHA|17=EX6GH7IDUB9R|150=F|39=2|55=GOOGL|54=2|38=50|32=21|31=37.62|151=29|14=21|6=37.62|10=108|8=FIX.4.4|9=156|35=8|49=BUYSIDE2|56=EXCH_Z|34=407|52=20260101-00:00:04.070|37=OR09ZDO0D3FV|17=EXNV4KFQ5DZ5|150=F|39=2|55=V|54=2|38=100|32=99|31=350.62|151=1|14=99|6=350.62|10=025|8=FIX.4.4|9=56|35=0|49=ALGO_A|56=ECN_Y|34=408|52=20260101-00:00:04.080|10=123|8=FIX.4.4|9=134|35=D|49=BUYSIDE2|56=EXCH_Z|34=409|52=20260101-00:00:04.090|11=CLBZYI9V8U9D|21=1|55=AAPL|54=2|60=20260101-00:00:04.090|38=50|40=1|59=1|10=134|8=FIX.4.4|9=59|35=0|49=BUYSIDE2|56=TARGET|34=410|52=20260101-00:00:04.100|10=045|8=FIX.4.4|9=145|35=D|49=BUYSIDE2|56=BROKER_X|34=411|52=20260101-00:00:04.110|11=CLCUMCZQ991P|21=1|55=JPM|54=1|60=20260101-00:00:04.110|38=10|40=2|44=352.48|59=1|10=156|8=FIX.4.4|9=145|35=D|49=ALGO_A|56=BROKER_X|34=412|52=20260101-00:00:04.120|11=CLPSWLDOQ59B|21=1|55=GOOGL|54=2|60=20260101-00:00:04.120|38=75|40=2|44=185.71|59=1|10=204|8=FIX.4.4|9=156|35=8|49=BUYSIDE1|56=EXCH_Z|34=413|52=20260101-00:00:04.130|37=OR5YMQT3DGD8|17=EXOPOCMVH0EQ|150=F|39=2|55=V|54=2|38=50|32=31|31=192.19|151=19|14=31|6=192.19|10=080|8=FIX.4.4|9=168|35=8|49=BUYSIDE2|56=EXCH_Z|34=414|52=20260101-00:00:04.140|37=OR9HHA1PJGFJ|17=EXC5QPH6GB6P|150=F|39=2|55=ABBV|54=1|38=10000|32=2696|31=148.62|151=7304|14=2696|6=148.62|10=164|8=FIX.4.4|9=137|35=8|49=HFT01|56=ECN_Y|34=415|52=20260101-00:00:04.150|37=OR6U3U6H0UFX|17=EX3030A67RL2|150=4|39=4|55=ORCL|54=2|38=1000|151=1000|14=0|6=0|10=193|8=FIX.4.4|9=133|35=8|49=ALGO_A|56=TARGET|34=416|52=20260101-00:00:04.160|37=ORB0GZ1VHHGY|17=EX8NNKL3ER9O|150=0|39=0|55=KO|54=2|38=50|151=50|14=0|6=0|10=177|8=FIX.4.4|9=144|35=D|49=SENDER|56=BROKER_X|34=417|52=20260101-00:00:04.170|11=CLQNTFPKXYWZ|21=1|55=TSLA|54=2|60=20260101-00:00:04.170|38=10|40=2|44=158.94|59=3|10=236|8=FIX.4.4|9=284|35=W|49=SENDER|56=EXCH_Z|34=418|52=20260101-00:00:04.180|262=CL0WTWS3Y4H1|55=PEP|268=8|269=0|270=45.25|271=10|269=1|270=51.14|271=500|269=0|270=100.90|271=100|269=1|270=85.26|271=500|269=0|270=38.85|271=10000|269=1|270=316.13|271=10000|269=1|270=24.52|271=50|269=1|270=313.91|271=500|10=091|8=FIX.4.4|9=136|35=8|49=HFT01|56=ECN_Y|34=419|52=20260101-00:00:04.190|37=OR4FLDAA1FWT|17=EX9UA09W1GXH|150=0|39=0|55=JNJ|54=1|38=5000|151=5000|14=0|6=0|10=214|8=FIX.4.4|9=133|35=D|49=BUYSIDE2|56=TARGET|34=420|52=20260101-00:00:04.200|11=CLJ7WWUDQVDK|21=1|55=UNH|54=2|60=20260101-00:00:04.200|38=10|40=1|59=3|10=072|8=FIX.4.4|9=139|35=8|49=SENDER|56=BROKER_X|34=421|52=20260101-00:00:04.210|37=ORYNL63GAGUV|17=EXB99RWTF07G|150=0|39=0|55=MSFT|54=1|38=500|151=500|14=0|6=0|10=085|8=FIX.4.4|9=136|35=D|49=SENDER|56=BROKER_X|34=422|52=20260101-00:00:04.220|11=CLBEDYEJHDZX|21=1|55=NFLX|54=2|60=20260101-00:00:04.220|38=1000|40=1|59=0|10=029|8=FIX.4.4|9=147|35=D|49=BUYSIDE1|56=BROKER_X|34=423|52=20260101-00:00:04.230|11=CLY5KOV1L28R|21=1|55=ADBE|54=2|60=20260101-00:00:04.230|38=500|40=2|44=119.29|59=0|10=240|8=FIX.4.4|9=159|35=8|49=SENDER|56=EXCH_Z|34=424|52=20260101-00:00:04.240|37=ORGBSVK3X8MB|17=EXGL2MCXN2EL|150=F|39=2|55=AAPL|54=2|38=500|32=368|31=52.62|151=132|14=368|6=52.62|10=243|8=FIX.4.4|9=158|35=8|49=ALGO_A|56=BROKER_X|34=425|52=20260101-00:00:04.250|37=ORSDKV54C6P1|17=EXLLH2R9PEGL|150=F|39=2|55=PEP|54=2|38=75|32=31|31=114.17|151=44|14=31|6=114.17|10=184|8=FIX.4.4|9=238|35=W|49=SENDER|56=TARGET|34=426|52=20260101-00:00:04.260|262=CL6K4O67BXCD|55=ORCL|268=6|269=1|270=28.35|271=500|269=0|270=111.36|271=10000|269=0|270=61.42|271=1000|269=1|270=43.39|271=10000|269=0|270=45.69|271=500|269=0|270=56.85|271=200|10=247|8=FIX.4.4|9=57|35=0|49=ALGO_A|56=TARGET|34=427|52=20260101-00:00:04.270|10=183|8=FIX.4.4|9=68|35=A|49=SENDER|56=ECN_Y|34=428|52=20260101-00:00:04.280|98=0|108=10|10=168|8=FIX.4.4|9=135|35=8|49=HFT01|56=ECN_Y|34=429|52=20260101-00:00:04.290|37=ORZ7VELFV46W|17=EXYSIRRK1RD1|150=4|39=4|55=NVDA|54=1|38=100|151=100|14=0|6=0|10=026|8=FIX.4.4|9=132|35=D|49=SENDER|56=TARGET|34=430|52=20260101-00:00:04.300|11=CL8CAH3GDHVS|21=1|55=CVX|54=1|60=20260101-00:00:04.300|38=100|40=1|59=3|10=174|8=FIX.4.4|9=59|35=0|49=BUYSIDE1|56=TARGET|34=431|52=20260101-00:00:04.310|10=050|8=FIX.4.4|9=129|35=F|49=BUYSIDE1|56=ECN_Y|34=432|52=20260101-00:00:04.320|41=CLNQWHOCPY8U|11=CLDQDDAQJRTM|55=BRK.B|54=1|60=20260101-00:00:04.320|10=025|8=FIX.4.4|9=133|35=D|49=ALGO_A|56=EXCH_Z|34=433|52=20260101-00:00:04.330|11=CLSBJDX0PKOV|21=1|55=QQQ|54=2|60=20260101-00:00:04.330|38=5000|40=1|59=0|10=064|8=FIX.4.4|9=133|35=D|49=SENDER|56=BROKER_X|34=434|52=20260101-00:00:04.340|11=CLE6UITJ5ZOO|21=1|55=PG|54=1|60=20260101-00:00:04.340|38=100|40=1|59=3|10=071|8=FIX.4.4|9=133|35=D|49=BUYSIDE2|56=ECN_Y|34=435|52=20260101-00:00:04.350|11=CL0DSZRK6ILC|21=1|55=UNH|54=2|60=20260101-00:00:04.350|38=200|40=1|59=0|10=029|8=FIX.4.4|9=129|35=F|49=BUYSIDE1|56=TARGET|34=436|52=20260101-00:00:04.360|41=CLXPA95G1AMR|11=CLA5RBAYKIS1|55=TSLA|54=1|60=20260101-00:00:04.360|10=188|8=FIX.4.4|9=140|35=8|49=BUYSIDE2|56=EXCH_Z|34=437|52=20260101-00:00:04.370|37=ORAMZ6146VEY|17=EX0A94XFRI09|150=0|39=0|55=MRK|54=2|38=1000|151=1000|14=0|6=0|10=001|8=FIX.4.4|9=151|35=8|49=ALGO_A|56=BROKER_X|34=438|52=20260101-00:00:04.380|37=ORJY5OP9LBSM|17=EXWPQ82K8RYQ|150=F|39=2|55=V|54=2|38=10|32=9|31=18.73|151=1|14=9|6=18.73|10=155|8=FIX.4.4|9=59|35=5|49=ALGO_A|56=BROKER_X|34=439|52=20260101-00:00:04.390|10=121|8=FIX.4.4|9=149|35=8|49=ALGO_A|56=TARGET|34=440|52=20260101-00:00:04.400|37=ORBLPXAJMK4X|17=EX1FDJ9HVCHR|150=F|39=2|55=KO|54=2|38=5|32=2|31=91.75|151=3|14=2|6=91.75|10=208|8=FIX.4.4|9=56|35=0|49=HFT01|56=EXCH_Z|34=441|52=20260101-00:00:04.410|10=072|8=FIX.4.4|9=134|35=D|49=ALGO_A|56=ECN_Y|34=442|52=20260101-00:00:04.420|11=CLGP52F1JOHK|21=1|55=ABBV|54=2|60=20260101-00:00:04.420|38=10000|40=1|59=1|10=249|8=FIX.4.4|9=70|35=A|49=HFT01|56=BROKER_X|34=443|52=20260101-00:00:04.430|98=0|108=30|10=013|8=FIX.4.4|9=56|35=0|49=HFT01|56=TARGET|34=444|52=20260101-00:00:04.440|10=052|8=FIX.4.4|9=161|35=8|49=HFT01|56=EXCH_Z|34=445|52=20260101-00:00:04.450|37=ORQ6A1DF62UN|17=EXW65B4EYQ1S|150=F|39=2|55=GOOGL|54=2|38=5000|32=694|31=92.22|151=4306|14=694|6=92.22|10=229|8=FIX.4.4|9=137|35=8|49=ALGO_A|56=EXCH_Z|34=446|52=20260101-00:00:04.460|37=ORY5EVSZZSU8|17=EXE6XFWZ73WH|150=0|39=0|55=META|54=1|38=200|151=200|14=0|6=0|10=023|8=FIX.4.4|9=161|35=8|49=HFT01|56=TARGET|34=447|52=20260101-00:00:04.470|37=OR3PCEO934T3|17=EXY4WPWG3XG0|150=F|39=2|55=JNJ|54=1|38=5000|32=3901|31=49.63|151=1099|14=3901|6=49.63|10=188|8=FIX.4.4|9=141|35=D|49=ALGO_A|56=EXCH_Z|34=448|52=20260101-00:00:04.480|11=CLNJN2Q3FKEO|21=1|55=ABBV|54=1|60=20260101-00:00:04.480|38=5|40=2|44=642.31|59=3|10=150|8=FIX.4.4|9=142|35=W|49=BUYSIDE2|56=BROKER_X|34=449|52=20260101-00:00:04.490|262=CLQ0J9M4SMZO|55=META|268=2|269=0|270=138.40|271=10000|269=1|270=67.12|271=50|10=093|8=FIX.4.4|9=137|35=8|49=ALGO_A|56=BROKER_X|34=450|52=20260101-00:00:04.500|37=ORU71SEL8MWO|17=EXB4FDD7R193|150=0|39=0|55=HD|54=2|38=500|151=500|14=0|6=0|10=103|8=FIX.4.4|9=139|35=8|49=BUYSIDE2|56=TARGET|34=451|52=20260101-00:00:04.510|37=OR7LZN9UHJPK|17=EXHF33GUWYH3|150=4|39=4|55=AAPL|54=2|38=500|151=500|14=0|6=0|10=063|8=FIX.4.4|9=144|35=D|49=BUYSIDE2|56=BROKER_X|34=452|52=20260101-00:00:04.520|11=CLY80TGH3SM6|21=1|55=JPM|54=1|60=20260101-00:00:04.520|38=10|40=2|44=79.52|59=3|10=100|8=FIX.4.4|9=128|35=F|49=ALGO_A|56=TARGET|34=453|52=20260101-00:00:04.530|41=CLESDRBTA3K3|11=CLOM5FKTISWL|55=GOOGL|54=1|60=20260101-00:00:04.530|10=185|8=FIX.4.4|9=233|35=W|49=SENDER|56=TARGET|34=454|52=20260101-00:00:04.540|262=CLMJM1FT07X5|55=HD|268=6|269=1|270=140.83|271=10|269=1|270=230.49|271=5|269=0|270=27.27|271=200|269=1|270=86.42|271=75|269=0|270=160.96|271=10000|269=1|270=257.95|271=5000|10=234|8=FIX.4.4|9=140|35=D|49=HFT01|56=EXCH_Z|34=455|52=20260101-00:00:04.550|11=CLTEEW6MM7ID|21=1|55=AAPL|54=1|60=20260101-00:00:04.550|38=75|40=2|44=61.42|59=1|10=028|8=FIX.4.4|9=57|35=0|49=ALGO_A|56=TARGET|34=456|52=20260101-00:00:04.560|10=187|8=FIX.4.4|9=70|35=2|49=BUYSIDE1|56=TARGET|34=457|52=20260101-00:00:04.570|7=16|16=63|10=039|8=FIX.4.4|9=155|35=8|49=BUYSIDE1|56=ECN_Y|34=458|52=20260101-00:00:04.580|37=OREOXXC7HZ36|17=EX4PKNT5I6LT|150=F|39=2|55=TSLA|54=1|38=100|32=7|31=37.98|151=93|14=7|6=37.98|10=091|8=FIX.4.4|9=160|35=8|49=BUYSIDE2|56=BROKER_X|34=459|52=20260101-00:00:04.590|37=ORE02BIP18A4|17=EXJVK8C4NANP|150=F|39=2|55=PG|54=2|38=100|32=27|31=264.60|151=73|14=27|6=264.60|10=245|8=FIX.4.4|9=145|35=D|49=BUYSIDE2|56=TARGET|34=460|52=20260101-00:00:04.600|11=CLTMAV6763V1|21=1|55=XOM|54=1|60=20260101-00:00:04.600|38=10000|40=2|44=84.94|59=3|10=052|8=FIX.4.4|9=57|35=0|49=SENDER|56=TARGET|34=461|52=20260101-00:00:04.610|10=177|8=FIX.4.4|9=231|35=W|49=ALGO_A|56=EXCH_Z|34=462|52=20260101-00:00:04.620|262=CLPZ1J8Q9I6K|55=AVGO|268=6|269=0|270=51.76|271=5|269=1|270=57.00|271=10000|269=0|270=30.12|271=200|269=1|270=234.56|271=5|269=1|270=58.25|271=5000|269=0|270=73.82|271=10|10=208|8=FIX.4.4|9=155|35=8|49=BUYSIDE2|56=ECN_Y|34=463|52=20260101-00:00:04.630|37=OR5EWFWBEBY4|17=EXUBZCZJJY4M|150=F|39=2|55=AMZN|54=2|38=10|32=10|31=89.11|151=0|14=10|6=89.11|10=097|8=FIX.4.4|9=154|35=8|49=BUYSIDE2|56=ECN_Y|34=464|52=20260101-00:00:04.640|37=OR3YCPKAVM96|17=EXN7KBNKFVDH|150=F|39=2|55=CVX|54=2|38=10|32=9|31=101.48|151=1|14=9|6=101.48|10=244|8=FIX.4.4|9=56|35=0|49=ALGO_A|56=ECN_Y|34=465|52=20260101-00:00:04.650|10=129|8=FIX.4.4|9=68|35=A|49=HFT01|56=TARGET|34=466|52=20260101-00:00:04.660|98=0|108=60|10=108|8=FIX.4.4|9=56|35=0|49=HFT01|56=TARGET|34=467|52=20260101-00:00:04.670|10=062|8=FIX.4.4|9=59|35=5|49=BUYSIDE1|56=EXCH_Z|34=468|52=20260101-00:00:04.680|10=101|8=FIX.4.4|9=131|35=D|49=ALGO_A|56=EXCH_Z|34=469|52=20260101-00:00:04.690|11=CLXSLHU6L29I|21=1|55=CVX|54=1|60=20260101-00:00:04.690|38=10|40=1|59=3|10=212|8=FIX.4.4|9=193|35=D|49=SENDER|56=ECN_Y|34=470|52=20260101-00:00:04.700|11=CLUCNRI2I397|21=1|55=HD|54=2|60=20260101-00:00:04.700|38=200|40=2|44=188.76|59=3|78=3|79=ACCT00|80=66|79=ACCT01|80=66|79=ACCT02|80=68|10=138|8=FIX.4.4|9=239|35=W|49=BUYSIDE2|56=ECN_Y|34=471|52=20260101-00:00:04.710|262=CLEOSFR5HGQG|55=ORCL|268=6|269=1|270=351.62|271=1000|269=0|270=73.43|271=10|269=0|270=103.90|271=500|269=1|270=71.21|271=5000|269=0|270=138.41|271=200|269=0|270=165.33|271=1000|10=125|8=FIX.4.4|9=125|35=F|49=HFT01|56=EXCH_Z|34=472|52=20260101-00:00:04.720|41=CLKREG167D6V|11=CLNXNPSV8DKM|55=IWM|54=2|60=20260101-00:00:04.720|10=182|8=FIX.4.4|9=151|35=8|49=ALGO_A|56=ECN_Y|34=473|52=20260101-00:00:04.730|37=ORDKEJP5K791|17=EX7XFH41A68T|150=F|39=2|55=JNJ|54=1|38=50|32=1|31=87.17|151=49|14=1|6=87.17|10=195|8=FIX.4.4|9=134|35=D|49=BUYSIDE2|56=EXCH_Z|34=474|52=20260101-00:00:04.740|11=CL0S3KDZ4PPJ|21=1|55=JPM|54=1|60=20260101-00:00:04.740|38=100|40=1|59=1|10=102|8=FIX.4.4|9=56|35=0|49=SENDER|56=ECN_Y|34=475|52=20260101-00:00:04.750|10=129|8=FIX.4.4|9=59|35=0|49=BUYSIDE1|56=TARGET|34=476|52=20260101-00:00:04.760|10=068|8=FIX.4.4|9=160|35=8|49=SENDER|56=ECN_Y|34=477|52=20260101-00:00:04.770|37=OR6BDZSGU4W8|17=EXWIV5HHQRGR|150=F|39=2|55=JPM|54=2|38=1000|32=204|31=143.74|151=796|14=204|6=143.74|10=049|8=FIX.4.4|9=163|35=W|49=ALGO_A|56=BROKER_X|34=478|52=20260101-00:00:04.780|262=CLACUHGPJNVW|55=SPY|268=3|269=0|270=468.82|271=1000|269=1|270=133.50|271=100|269=0|270=81.48|271=75|10=070|8=FIX.4.4|9=171|35=D|49=SENDER|56=ECN_Y|34=479|52=20260101-00:00:04.790|11=CLZZ1R2ROIKS|21=1|55=ORCL|54=2|60=20260101-00:00:04.790|38=200|40=1|59=0|78=2|79=ACCT00|80=100|79=ACCT01|80=100|10=187|8=FIX.4.4|9=252|35=W|49=BUYSIDE2|56=ECN_Y|34=480|52=20260101-00:00:04.800|262=CLO3PJBRHWBQ|55=PG|268=7|269=0|270=124.49|271=10|269=1|270=32.93|271=5|269=1|270=122.78|271=5000|269=0|270=78.56|271=50|269=1|270=188.78|271=50|269=1|270=74.08|271=75|269=0|270=75.80|271=50|10=201|8=FIX.4.4|9=150|35=8|49=HFT01|56=EXCH_Z|34=481|52=20260101-00:00:04.810|37=ORE0JDCZ1OA3|17=EXVF02GVLLSA|150=F|39=2|55=AVGO|54=1|38=5|32=4|31=69.66|151=1|14=4|6=69.66|10=199|8=FIX.4.4|9=157|35=8|49=HFT01|56=ECN_Y|34=482|52=20260101-00:00:04.820|37=ORR6TIARONTD|17=EXI9OINUXL39|150=F|39=2|55=TSLA|54=2|38=500|32=288|31=72.54|151=212|14=288|6=72.54|10=114|8=FIX.4.4|9=140|35=8|49=ALGO_A|56=EXCH_Z|34=483|52=20260101-00:00:04.830|37=ORS41CRO04BY|17=EXV5JHURR8IQ|150=4|39=4|55=SPY|54=2|38=10000|151=10000|14=0|6=0|10=079|8=FIX.4.4|9=131|35=D|49=SENDER|56=EXCH_Z|34=484|52=20260101-00:00:04.840|11=CLEASEH5E5RW|21=1|55=QQQ|54=2|60=20260101-00:00:04.840|38=50|40=1|59=0|10=193|8=FIX.4.4|9=57|35=0|49=ALGO_A|56=EXCH_Z|34=485|52=20260101-00:00:04.850|10=217|8=FIX.4.4|9=143|35=D|49=BUYSIDE2|56=ECN_Y|34=486|52=20260101-00:00:04.860|11=CLSWNXFSHWZS|21=1|55=BAC|54=2|60=20260101-00:00:04.860|38=1000|40=2|44=44.77|59=0|10=078|8=FIX.4.4|9=73|35=A|49=BUYSIDE1|56=BROKER_X|34=487|52=20260101-00:00:04.870|98=0|108=60|10=038|8=FIX.4.4|9=56|35=0|49=HFT01|56=TARGET|34=488|52=20260101-00:00:04.880|10=068|8=FIX.4.4|9=151|35=8|49=SENDER|56=EXCH_Z|34=489|52=20260101-00:00:04.890|37=ORLCQFMUIW7J|17=EX35VLWOJTXC|150=F|39=2|55=V|54=2|38=10|32=2|31=140.51|151=8|14=2|6=140.51|10=102|8=FIX.4.4|9=61|35=0|49=BUYSIDE2|56=BROKER_X|34=490|52=20260101-00:00:04.900|10=235|8=FIX.4.4|9=159|35=8|49=ALGO_A|56=ECN_Y|34=491|52=20260101-00:00:04.910|37=OR80W6HAIH7W|17=EXFRAC8E3PQK|150=F|39=2|55=BRK.B|54=2|38=200|32=62|31=202.00|151=138|14=62|6=202.00|10=126|8=FIX.4.4|9=274|35=W|49=HFT01|56=EXCH_Z|34=492|52=20260101-00:00:04.920|262=CLM4LCVHFWJF|55=CRM|268=8|269=1|270=93.28|271=10|269=1|270=128.24|271=200|269=1|270=175.59|271=500|269=0|270=364.22|271=75|269=1|270=7.51|271=5|269=0|270=84.12|271=5|269=1|270=313.48|271=5|269=1|270=41.14|271=1000|10=101|8=FIX.4.4|9=145|35=D|49=ALGO_A|56=TARGET|34=493|52=20260101-00:00:04.930|11=CL579WRR513B|21=1|55=MSFT|54=1|60=20260101-00:00:04.930|38=10000|40=2|44=188.48|59=1|10=032|8=FIX.4.4|9=59|35=0|49=BUYSIDE1|56=TARGET|34=494|52=20260101-00:00:04.940|10=068|8=FIX.4.4|9=132|35=D|49=SENDER|56=ECN_Y|34=495|52=20260101-00:00:04.950|11=CLDT9GWA44LZ|21=1|55=MRK|54=2|60=20260101-00:00:04.950|38=5000|40=1|59=0|10=204|8=FIX.4.4|9=155|35=8|49=SENDER|56=BROKER_X|34=496|52=20260101-00:00:04.960|37=ORPJHSG04AJM|17=EXMUZUQED0GV|150=F|39=2|55=MSFT|54=2|38=5|32=2|31=100.26|151=3|14=2|6=100.26|10=142|8=FIX.4.4|9=58|35=0|49=BUYSIDE1|56=ECN_Y|34=497|52=20260101-00:00:04.970|10=016|8=FIX.4.4|9=134|35=D|49=BUYSIDE1|56=ECN_Y|34=498|52=20260101-00:00:04.980|11=CLBZGFLIG5GK|21=1|55=ADBE|54=1|60=20260101-00:00:04.980|38=100|40=1|59=1|10=088|8=FIX.4.4|9=161|35=8|49=BUYSIDE1|56=TARGET|34=499|52=20260101-00:00:04.990|37=OR8VFU9PXYKM|17=EX8T0JSHHJ7S|150=F|39=2|55=UNH|54=2|38=200|32=122|31=217.83|151=78|14=122|6=217.83|10=145|8=FIX.4.4|9=161|35=8|49=SENDER|56=ECN_Y|34=500|52=20260101-00:00:05.000|37=ORZW5APMXD6L|17=EXQGA3QUPO4J|150=F|39=2|55=MRK|54=2|38=10000|32=9846|31=66.22|151=154|14=9846|6=66.22|10=085|8=FIX.4.4|9=154|35=8|49=BUYSIDE2|56=EXCH_Z|34=501|52=20260101-00:00:05.010|37=ORVFFKVZS8UF|17=EXX2BD2FMOQX|150=F|39=2|55=JNJ|54=2|38=5|32=2|31=101.14|151=3|14=2|6=101.14|10=034|8=FIX.4.4|9=156|35=8|49=BUYSIDE1|56=ECN_Y|34=502|52=20260101-00:00:05.020|37=ORAFDTOHRNQI|17=EX7NL7OLKY5V|150=F|39=2|55=META|54=1|38=75|32=45|31=72.55|151=30|14=45|6=72.55|10=149|8=FIX.4.4|9=134|35=D|49=BUYSIDE1|56=ECN_Y|34=503|52=20260101-00:00:05.030|11=CLNSAVOCIRBK|21=1|55=NVDA|54=1|60=20260101-00:00:05.030|38=200|40=1|59=0|10=116|8=FIX.4.4|9=134|35=D|49=BUYSIDE2|56=ECN_Y|34=504|52=20260101-00:00:05.040|11=CLN3B8PFY4QC|21=1|55=TSLA|54=1|60=20260101-00:00:05.040|38=500|40=1|59=1|10=071|8=FIX.4.4|9=59|35=0|49=SENDER|56=BROKER_X|34=505|52=20260101-00:00:05.050|10=102|8=FIX.4.4|9=160|35=8|49=SENDER|56=ECN_Y|34=506|52=20260101-00:00:05.060|37=ORP0E36S2Z48|17=EXEGP15CA8ZJ|150=F|39=2|55=IWM|54=2|38=1000|32=833|31=149.07|151=167|14=833|6=149.07|10=145|8=FIX.4.4|9=303|35=W|49=HFT01|56=TARGET|34=507|52=20260101-00:00:05.070|262=CLQB5QBVNPY1|55=MSFT|268=9|269=1|270=50.12|271=5|269=1|270=51.36|271=10000|269=0|270=81.18|271=500|269=0|270=38.15|271=50|269=0|270=137.09|271=100|269=1|270=13.28|271=5000|269=1|270=39.01|271=5|269=0|270=171.30|271=10|269=1|270=105.97|271=200|10=137|8=FIX.4.4|9=71|35=A|49=BUYSIDE2|56=EXCH_Z|34=508|52=20260101-00:00:05.080|98=0|108=30|10=123|8=FIX.4.4|9=137|35=8|49=SENDER|56=BROKER_X|34=509|52=20260101-00:00:05.090|37=ORU9WT2YBUH7|17=EXJYGSBOGKAH|150=8|39=8|55=ORCL|54=2|38=10|151=10|14=0|6=0|10=072|8=FIX.4.4|9=222|35=D|49=BUYSIDE2|56=TARGET|34=510|52=20260101-00:00:05.100|11=CLHALCKZ3VWL|21=1|55=PEP|54=2|60=20260101-00:00:05.100|38=10000|40=2|44=92.23|59=1|78=4|79=ACCT00|80=2500|79=ACCT01|80=2500|79=ACCT02|80=2500|79=ACCT03|80=2500|10=158|8=FIX.4.4|9=158|35=8|49=BUYSIDE1|56=BROKER_X|34=511|52=20260101-00:00:05.110|37=ORYJB48WUMH9|17=EXNKLYBWGMP9|150=F|39=2|55=MSFT|54=2|38=50|32=49|31=81.22|151=1|14=49|6=81.22|10=089|8=FIX.4.4|9=57|35=5|49=ALGO_A|56=EXCH_Z|34=512|52=20260101-00:00:05.120|10=204|8=FIX.4.4|9=72|35=2|49=BUYSIDE1|56=EXCH_Z|34=513|52=20260101-00:00:05.130|7=385|16=420|10=155|8=FIX.4.4|9=160|35=W|49=SENDER|56=EXCH_Z|34=514|52=20260101-00:00:05.140|262=CLH9UGF10OO1|55=ORCL|268=3|269=1|270=67.41|271=10|269=1|270=100.16|271=75|269=1|270=98.18|271=1000|10=247|8=FIX.4.4|9=136|35=8|49=SENDER|56=EXCH_Z|34=515|52=20260101-00:00:05.150|37=ORUPPGBIVSCU|17=EXOAVFWY8AV2|150=4|39=4|55=PEP|54=2|38=100|151=100|14=0|6=0|10=213|8=FIX.4.4|9=211|35=W|49=BUYSIDE1|56=EXCH_Z|34=516|52=20260101-00:00:05.160|262=CLN5G77LK6HQ|55=HD|268=5|269=1|270=364.43|271=10|269=1|270=28.23|271=10|269=0|270=290.91|271=500|269=1|270=85.30|271=5000|269=0|270=211.36|271=5000|10=018|8=FIX.4.4|9=56|35=0|49=HFT01|56=EXCH_Z|34=517|52=20260101-00:00:05.170|10=080|8=FIX.4.4|9=73|35=1|49=SENDER|56=ECN_Y|34=518|52=20260101-00:00:05.180|112=CL330BO7WP2D|10=089|8=FIX.4.4|9=74|35=1|49=ALGO_A|56=TARGET|34=519|52=20260101-00:00:05.190|112=CLZNXFIRJLYQ|10=061|8=FIX.4.4|9=58|35=0|49=BUYSIDE1|56=ECN_Y|34=520|52=20260101-00:00:05.200|10=246|8=FIX.4.4|9=160|35=8|49=ALGO_A|56=TARGET|34=521|52=20260101-00:00:05.210|37=OR1FKHNNK8FW|17=EXRPK0ZFKNWB|150=F|39=2|55=MA|54=2|38=1000|32=598|31=187.60|151=402|14=598|6=187.60|10=011|8=FIX.4.4|9=161|35=8|49=ALGO_A|56=EXCH_Z|34=522|52=20260101-00:00:05.220|37=ORR69XVSSN7X|17=EX5RRNYCIHFV|150=F|39=2|55=BRK.B|54=2|38=200|32=167|31=327.77|151=33|14=167|6=327.77|10=175|8=FIX.4.4|9=159|35=8|49=SENDER|56=ECN_Y|34=523|52=20260101-00:00:05.230|37=ORSJ84TC2QSI|17=EX2G74IZG9JJ|150=F|39=2|55=JNJ|54=1|38=5000|32=522|31=81.97|151=4478|14=522|6=81.97|10=165|8=FIX.4.4|9=128|35=F|49=BUYSIDE1|56=ECN_Y|34=524|52=20260101-00:00:05.240|41=CLCIVUQT2LWH|11=CLEDHTHRUU5E|55=ADBE|54=1|60=20260101-00:00:05.240|10=197|8=FIX.4.4|9=305|35=W|49=SENDER|56=ECN_Y|34=525|52=20260101-00:00:05.250|262=CL1VRGSS8K5I|55=AVGO|268=9|269=1|270=120.84|271=50|269=1|270=102.10|271=50|269=0|270=296.78|271=10|269=1|270=49.86|271=50|269=0|270=499.41|271=75|269=1|270=99.84|271=5000|269=1|270=45.67|271=10000|269=0|270=111.64|271=50|269=0|270=548.37|271=50|10=089|8=FIX.4.4|9=185|35=W|49=BUYSIDE2|56=EXCH_Z|34=526|52=20260101-00:00:05.260|262=CLX22J7Q4KFM|55=KO|268=4|269=1|270=88.23|271=500|269=1|270=35.44|271=50|269=1|270=141.79|271=100|269=1|270=84.68|271=5000|10=146|8=FIX.4.4|9=213|35=W|49=BUYSIDE1|56=EXCH_Z|34=527|52=20260101-00:00:05.270|262=CL4DILRZQ8BX|55=QQQ|268=5|269=0|270=46.19|271=500|269=0|270=21.81|271=100|269=1|270=88.35|271=1000|269=0|270=132.87|271=5000|269=0|270=87.70|271=5000|10=249|8=FIX.4.4|9=58|35=0|49=BUYSIDE2|56=ECN_Y|34=528|52=20260101-00:00:05.280|10=007|8=FIX.4.4|9=219|35=D|49=HFT01|56=BROKER_X|34=529|52=20260101-00:00:05.290|11=CLGQQLYZJ0AE|21=1|55=ORCL|54=2|60=20260101-00:00:05.290|38=200|40=1|59=0|78=5|79=ACCT00|80=40|79=ACCT01|80=40|79=ACCT02|80=40|79=ACCT03|80=40|79=ACCT04|80=40|10=100|8=FIX.4.4|9=143|35=D|49=ALGO_A|56=ECN_Y|34=530|52=20260101-00:00:05.300|11=CLAPBS22RUW0|21=1|55=NVDA|54=1|60=20260101-00:00:05.300|38=5000|40=2|44=226.43|59=0|10=192|8=FIX.4.4|9=57|35=0|49=SENDER|56=EXCH_Z|34=531|52=20260101-00:00:05.310|10=199|8=FIX.4.4|9=209|35=W|49=SENDER|56=EXCH_Z|34=532|52=20260101-00:00:05.320|262=CL3Q69FLGUQ2|55=CRM|268=5|269=0|270=82.15|271=10000|269=1|270=86.93|271=75|269=1|270=113.10|271=75|269=1|270=113.30|271=50|269=0|270=74.27|271=5000|10=197|8=FIX.4.4|9=134|35=W|49=BUYSIDE1|56=ECN_Y|34=533|52=20260101-00:00:05.330|262=CL8LLIHKPJ7H|55=KO|268=2|269=0|270=60.37|271=500|269=0|270=73.67|271=75|10=078|8=FIX.4.4|9=144|35=D|49=BUYSIDE1|56=BROKER_X|34=534|52=20260101-00:00:05.340|11=CL1VE8SUSFH7|21=1|55=KO|54=2|60=20260101-00:00:05.340|38=200|40=2|44=85.84|59=1|10=098|8=FIX.4.4|9=157|35=8|49=SENDER|56=TARGET|34=535|52=20260101-00:00:05.350|37=ORNP8DMLC8XI|17=EXZX35A806B4|150=F|39=2|55=UNH|54=2|38=100|32=73|31=123.66|151=27|14=73|6=123.66|10=034|8=FIX.4.4|9=160|35=8|49=BUYSIDE1|56=ECN_Y|34=536|52=20260101-00:00:05.360|37=ORNOFG7803G5|17=EXDFRLW6JL2L|150=F|39=2|55=SPY|54=1|38=1000|32=36|31=145.97|151=964|14=36|6=145.97|10=245|8=FIX.4.4|9=59|35=0|49=BUYSIDE1|56=EXCH_Z|34=537|52=20260101-00:00:05.370|10=090|8=FIX.4.4|9=154|35=8|49=BUYSIDE1|56=TARGET|34=538|52=20260101-00:00:05.380|37=ORPC8QO6P43A|17=EXR6JLT8YDR3|150=F|39=2|55=JNJ|54=1|38=50|32=9|31=42.84|151=41|14=9|6=42.84|10=213|8=FIX.4.4|9=156|35=8|49=HFT01|56=ECN_Y|34=539|52=20260101-00:00:05.390|37=OR5DIGXL9YSU|17=EX51EPXU7B6N|150=F|39=2|55=GOOGL|54=1|38=75|32=26|31=232.95|151=49|14=26|6=232.95|10=045|8=FIX.4.4|9=59|35=5|49=SENDER|56=BROKER_X|34=540|52=20260101-00:00:05.400|10=105|8=FIX.4.4|9=213|35=W|49=BUYSIDE1|56=EXCH_Z|34=541|52=20260101-00:00:05.410|262=CLLURMW3UQHW|55=ADBE|268=5|269=0|270=263.95|271=5000|269=1|270=12.45|271=100|269=1|270=226.30|271=5000|269=1|270=195.36|271=200|269=1|270=38.67|271=5|10=016|8=FIX.4.4|9=59|35=5|49=BUYSIDE1|56=TARGET|34=542|52=20260101-00:00:05.420|10=061|8=FIX.4.4|9=153|35=8|49=BUYSIDE2|56=ECN_Y|34=543|52=20260101-00:00:05.430|37=ORQT788G35SF|17=EXY1H0S2UTBT|150=F|39=2|55=PG|54=1|38=10|32=9|31=109.76|151=1|14=9|6=109.76|10=112|8=FIX.4.4|9=163|35=8|49=ALGO_A|56=EXCH_Z|34=544|52=20260101-00:00:05.440|37=OR4K88K686QE|17=EX7AJUL7W8CO|150=F|39=2|55=V|54=1|38=10000|32=7880|31=189.78|151=2120|14=7880|6=189.78|10=074|8=FIX.4.4|9=76|35=1|49=BUYSIDE1|56=EXCH_Z|34=545|52=20260101-00:00:05.450|112=CL2XOG4C8J6E|10=077|8=FIX.4.4|9=61|35=0|49=BUYSIDE1|56=BROKER_X|34=546|52=20260101-00:00:05.460|10=238|8=FIX.4.4|9=141|35=D|49=SENDER|56=ECN_Y|34=547|52=20260101-00:00:05.470|11=CLS1VIP3TVF5|21=1|55=XOM|54=1|60=20260101-00:00:05.470|38=100|40=2|44=185.49|59=1|10=137|8=FIX.4.4|9=287|35=W|49=ALGO_A|56=BROKER_X|34=548|52=20260101-00:00:05.480|262=CL5Y21ID9VVN|55=QQQ|268=8|269=1|270=73.92|271=100|269=1|270=465.96|271=200|269=1|270=135.11|271=200|269=0|270=94.83|271=75|269=1|270=128.21|271=1000|269=1|270=307.69|271=500|269=0|270=139.85|271=10|269=0|270=55.48|271=10000|10=100|8=FIX.4.4|9=145|35=D|49=BUYSIDE2|56=EXCH_Z|34=549|52=20260101-00:00:05.490|11=CL4US73W1YAU|21=1|55=MSFT|54=1|60=20260101-00:00:05.490|38=200|40=2|44=459.07|59=3|10=165|8=FIX.4.4|9=75|35=1|49=BUYSIDE2|56=ECN_Y|34=550|52=20260101-00:00:05.500|112=CL3M9IQBQ9J2|10=249|8=FIX.4.4|9=138|35=8|49=BUYSIDE1|56=EXCH_Z|34=551|52=20260101-00:00:05.510|37=OR4MW04I3DZX|17=EXLRGNJZM361|150=0|39=0|55=WMT|54=2|38=500|151=500|14=0|6=0|10=246|8=FIX.4.4|9=165|35=8|49=ALGO_A|56=BROKER_X|34=552|52=20260101-00:00:05.520|37=OROZHDV5OJZT|17=EXO7D835KUC9|150=F|39=2|55=ADBE|54=2|38=5000|32=335|31=185.90|151=4665|14=335|6=185.90|10=082|8=FIX.4.4|9=154|35=8|49=BUYSIDE1|56=BROKER_X|34=553|52=20260101-00:00:05.530|37=OR5P3FK84RPU|17=EX9GGSOU6NJ2|150=F|39=2|55=MRK|54=2|38=5|32=3|31=95.08|151=2|14=3|6=95.08|10=043|8=FIX.4.4|9=141|35=D|49=ALGO_A|56=ECN_Y|34=554|52=20260101-00:00:05.540|11=CLCYL3Z2UD79|21=1|55=SPY|54=2|60=20260101-00:00:05.540|38=5000|40=2|44=26.36|59=0|10=108|8=FIX.4.4|9=260|35=W|49=ALGO_A|56=BROKER_X|34=555|52=20260101-00:00:05.550|262=CLQUBWRP8GUU|55=GOOGL|268=7|269=1|270=89.19|271=10|269=1|270=612.96|271=5|269=1|270=66.50|271=50|269=1|270=48.75|271=5000|269=1|270=57.93|271=5000|269=1|270=34.45|271=10000|269=1|270=169.44|271=10|10=247|8=FIX.4.4|9=331|35=W|49=HFT01|56=BROKER_X|34=556|52=20260101-00:00:05.560|262=CL0IV1GGXRED|55=IBM|268=10|269=1|270=195.66|271=1000|269=0|270=178.28|271=100|269=1|270=45.73|271=100|269=1|270=46.55|271=75|269=0|270=55.76|271=10|269=1|270=92.47|271=100|269=0|270=127.37|271=10|269=0|270=36.83|271=100|269=0|270=258.10|271=200|269=0|270=121.84|271=75|10=217|8=FIX.4.4|9=59|35=5|49=SENDER|56=BROKER_X|34=557|52=20260101-00:00:05.570|10=121|8=FIX.4.4|9=189|35=W|49=HFT01|56=BROKER_X|34=558|52=20260101-00:00:05.580|262=CLS3QW752E77|55=TSLA|268=4|269=1|270=183.61|271=50|269=0|270=98.68|271=10000|269=1|270=110.80|271=1000|269=0|270=127.45|271=75|10=059|8=FIX.4.4|9=132|35=D|49=HFT01|56=TARGET|34=559|52=20260101-00:00:05.590|11=CLM6736Z4DSX|21=1|55=CVX|54=1|60=20260101-00:00:05.590|38=5000|40=1|59=1|10=115|8=FIX.4.4|9=330|35=W|49=ALGO_A|56=EXCH_Z|34=560|52=20260101-00:00:05.600|262=CL1XKE1KWONR|55=QQQ|268=10|269=0|270=61.88|271=500|269=1|270=97.97|271=100|269=0|270=103.49|271=10|269=1|270=111.98|271=200|269=0|270=104.52|271=100|269=1|270=103.55|271=200|269=0|270=136.25|271=75|269=1|270=32.48|271=5|269=0|270=206.36|271=10|269=1|270=203.05|271=500|10=205|8=FIX.4.4|9=163|35=8|49=HFT01|56=ECN_Y|34=561|52=20260101-00:00:05.610|37=ORH50JYOOK63|17=EXRVWOZQXIWE|150=F|39=2|55=QQQ|54=1|38=10000|32=1090|31=705.73|151=8910|14=1090|6=705.73|10=152|8=FIX.4.4|9=158|35=8|49=ALGO_A|56=ECN_Y|34=562|52=20260101-00:00:05.620|37=ORDE358TRE9Q|17=EXDI3G13IWPF|150=F|39=2|55=AMZN|54=2|38=500|32=340|31=65.77|151=160|14=340|6=65.77|10=114|8=FIX.4.4|9=73|35=A|49=BUYSIDE1|56=BROKER_X|34=563|52=20260101-00:00:05.630|98=0|108=60|10=028|8=FIX.4.4|9=161|35=8|49=BUYSIDE1|56=ECN_Y|34=564|52=20260101-00:00:05.640|37=ORQ6CN8SIWMZ|17=EXAP4VKFTLEC|150=F|39=2|55=MSFT|54=1|38=200|32=159|31=192.20|151=41|14=159|6=192.20|10=154|8=FIX.4.4|9=58|35=0|49=BUYSIDE2|56=ECN_Y|34=565|52=20260101-00:00:05.650|10=009|8=FIX.4.4|9=131|35=8|49=HFT01|56=TARGET|34=566|52=20260101-00:00:05.660|37=OR41BTA3RUNY|17=EXN6IRJ9WR6Q|150=4|39=4|55=MRK|54=1|38=5|151=5|14=0|6=0|10=058|8=FIX.4.4|9=161|35=8|49=BUYSIDE2|56=BROKER_X|34=567|52=20260101-00:00:05.670|37=ORBO549EWHO5|17=EXQQ8QMXETIZ|150=F|39=2|55=JNJ|54=1|38=500|32=486|31=82.69|151=14|14=486|6=82.69|10=223|8=FIX.4.4|9=126|35=F|49=ALGO_A|56=ECN_Y|34=568|52=20260101-00:00:05.680|41=CL6T1OXHFDXK|11=CL31WBHTFNSG|55=ADBE|54=1|60=20260101-00:00:05.680|10=026|8=FIX.4.4|9=182|35=D|49=ALGO_A|56=BROKER_X|34=569|52=20260101-00:00:05.690|11=CLXU2FLI01RV|21=1|55=AMZN|54=1|60=20260101-00:00:05.690|38=100|40=2|44=309.53|59=3|78=2|79=ACCT00|80=50|79=ACCT01|80=50|10=007|8=FIX.4.4|9=141|35=8|49=BUYSIDE2|56=BROKER_X|34=570|52=20260101-00:00:05.700|37=OR08LCWL6QMG|17=EXK2F5FE6OUW|150=4|39=4|55=AVGO|54=1|38=200|151=200|14=0|6=0|10=193|8=FIX.4.4|9=224|35=D|49=SENDER|56=TARGET|34=571|52=20260101-00:00:05.710|11=CLENNGAY37VG|21=1|55=MSFT|54=1|60=20260101-00:00:05.710|38=1000|40=1|59=0|78=5|79=ACCT00|80=200|79=ACCT01|80=200|79=ACCT02|80=200|79=ACCT03|80=200|79=ACCT04|80=200|10=031|8=FIX.4.4|9=68|35=A|49=ALGO_A|56=ECN_Y|34=572|52=20260101-00:00:05.720|98=0|108=30|10=172|8=FIX.4.4|9=72|35=2|49=SENDER|56=BROKER_X|34=573|52=20260101-00:00:05.730|7=908|16=932|10=198|8=FIX.4.4|9=155|35=8|49=SENDER|56=ECN_Y|34=574|52=20260101-00:00:05.740|37=ORV2A6PG4GKS|17=EX6R6BILQPB0|150=F|39=2|55=NFLX|54=2|38=50|32=43|31=129.06|151=7|14=43|6=129.06|10=239|8=FIX.4.4|9=162|35=8|49=HFT01|56=EXCH_Z|34=575|52=20260101-00:00:05.750|37=ORNZJNNS9PZE|17=EXMJGKCQY265|150=F|39=2|55=BRK.B|54=1|38=10000|32=377|31=70.93|151=9623|14=377|6=70.93|10=126|8=FIX.4.4|9=59|35=0|49=SENDER|56=BROKER_X|34=576|52=20260101-00:00:05.760|10=118|8=FIX.4.4|9=164|35=8|49=SENDER|56=TARGET|34=577|52=20260101-00:00:05.770|37=OR00M6CU88WL|17=EXXWCE77GZDP|150=F|39=2|55=PG|54=1|38=10000|32=3445|31=646.14|151=6555|14=3445|6=646.14|10=159|8=FIX.4.4|9=166|35=8|49=BUYSIDE1|56=EXCH_Z|34=578|52=20260101-00:00:05.780|37=ORKY5CGAGHFT|17=EX9ZZCGL9FWV|150=F|39=2|55=ORCL|54=2|38=5000|32=4151|31=175.26|151=849|14=4151|6=175.26|10=202|8=FIX.4.4|9=212|35=W|49=HFT01|56=ECN_Y|34=579|52=20260101-00:00:05.790|262=CL30TX8J1CCM|55=GOOGL|268=5|269=1|270=143.69|271=10000|269=1|270=198.16|271=10|269=1|270=157.25|271=200|269=1|270=77.16|271=1000|269=1|270=127.37|271=75|10=044|8=FIX.4.4|9=136|35=W|49=BUYSIDE2|56=EXCH_Z|34=580|52=20260101-00:00:05.800|262=CLQQ749Q6QF1|55=ORCL|268=2|269=0|270=28.39|271=50|269=1|270=71.82|271=50|10=217|8=FIX.4.4|9=135|35=8|49=BUYSIDE2|56=ECN_Y|34=581|52=20260101-00:00:05.810|37=ORHRF34JGVRP|17=EX4RXMD8ZVFS|150=4|39=4|55=QQQ|54=1|38=10|151=10|14=0|6=0|10=149|8=FIX.4.4|9=56|35=0|49=HFT01|56=EXCH_Z|34=582|52=20260101-00:00:05.820|10=084|8=FIX.4.4|9=158|35=8|49=HFT01|56=TARGET|34=583|52=20260101-00:00:05.830|37=ORVTMNYEURAN|17=EXI8Y66W6RKM|150=F|39=2|55=XOM|54=1|38=200|32=179|31=175.34|151=21|14=179|6=175.34|10=184|8=FIX.4.4|9=162|35=8|49=BUYSIDE1|56=EXCH_Z|34=584|52=20260101-00:00:05.840|37=ORU6L5NFLTQ6|17=EX80COG1ZN1R|150=F|39=2|55=PG|54=2|38=10000|32=51|31=117.56|151=9949|14=51|6=117.56|10=105|8=FIX.4.4|9=141|35=8|49=BUYSIDE2|56=EXCH_Z|34=585|52=20260101-00:00:05.850|37=OR9VT3X8VE00|17=EXH2K2P3AJFA|150=0|39=0|55=ORCL|54=2|38=5000|151=5000|14=0|6=0|10=088|8=FIX.4.4|9=162|35=8|49=ALGO_A|56=EXCH_Z|34=586|52=20260101-00:00:05.860|37=OR1DJJZQFE8E|17=EX5TNLZTWXOL|150=F|39=2|55=AMZN|54=1|38=1000|32=660|31=146.71|151=340|14=660|6=146.71|10=237|8=FIX.4.4|9=168|35=8|49=BUYSIDE1|56=TARGET|34=587|52=20260101-00:00:05.870|37=OR19MO1RTSXO|17=EXF33QE6JIXU|150=F|39=2|55=GOOGL|54=1|38=5000|32=1848|31=167.69|151=3152|14=1848|6=167.69|10=022|8=FIX.4.4|9=136|35=D|49=BUYSIDE1|56=BROKER_X|34=588|52=20260101-00:00:05.880|11=CLSL1YA1RYZT|21=1|55=AMZN|54=1|60=20260101-00:00:05.880|38=75|40=1|59=0|10=116|8=FIX.4.4|9=211|35=W|49=BUYSIDE1|56=EXCH_Z|34=589|52=20260101-00:00:05.890|262=CLAZUN6FHT60|55=LLY|268=5|269=1|270=116.50|271=50|269=0|270=159.02|271=75|269=1|270=244.49|271=100|269=1|270=152.27|271=500|269=0|270=505.54|271=75|10=143|8=FIX.4.4|9=154|35=8|49=BUYSIDE1|56=ECN_Y|34=590|52=20260101-00:00:05.900|37=ORHAA34H8NL9|17=EXVFRUK94IW5|150=F|39=2|55=MSFT|54=2|38=75|32=7|31=81.30|151=68|14=7|6=81.30|10=224|8=FIX.4.4|9=76|35=1|49=BUYSIDE2|56=TARGET|34=591|52=20260101-00:00:05.910|112=CLKNUFBHGP5C|10=111|8=FIX.4.4|9=130|35=D|49=SENDER|56=ECN_Y|34=592|52=20260101-00:00:05.920|11=CLFQ796EW825|21=1|55=SPY|54=1|60=20260101-00:00:05.920|38=50|40=1|59=1|10=048|8=FIX.4.4|9=161|35=8|49=ALGO_A|56=ECN_Y|34=593|52=20260101-00:00:05.930|37=ORJZR0FCYBR3|17=EXO9UBC1KKR2|150=F|39=2|55=MSFT|54=1|38=1000|32=688|31=332.86|151=312|14=688|6=332.86|10=087|8=FIX.4.4|9=137|35=8|49=HFT01|56=EXCH_Z|34=594|52=20260101-00:00:05.940|37=OR2Z0KDN3TN6|17=EX0TLXOUN91F|150=4|39=4|55=QQQ|54=1|38=1000|151=1000|14=0|6=0|10=092|8=FIX.4.4|9=188|35=D|49=ALGO_A|56=ECN_Y|34=595|52=20260101-00:00:05.950|11=CL5LMQ15FBS4|21=1|55=V|54=2|60=20260101-00:00:05.950|38=10|40=2|44=133.60|59=1|78=3|79=ACCT00|80=3|79=ACCT01|80=3|79=ACCT02|80=4|10=119|8=FIX.4.4|9=76|35=1|49=ALGO_A|56=BROKER_X|34=596|52=20260101-00:00:05.960|112=CL923O359TSU|10=103|8=FIX.4.4|9=153|35=8|49=HFT01|56=TARGET|34=597|52=20260101-00:00:05.970|37=ORL4N7S3HMO1|17=EXDXQ46GA2SD|150=F|39=2|55=V|54=1|38=75|32=10|31=326.91|151=65|14=10|6=326.91|10=245|8=FIX.4.4|9=212|35=D|49=BUYSIDE1|56=TARGET|34=598|52=20260101-00:00:05.980|11=CL8GAKH3YCQE|21=1|55=KO|54=2|60=20260101-00:00:05.980|38=100|40=2|44=121.98|59=0|78=4|79=ACCT00|80=25|79=ACCT01|80=25|79=ACCT02|80=25|79=ACCT03|80=25|10=164|8=FIX.4.4|9=166|35=8|49=SENDER|56=EXCH_Z|34=599|52=20260101-00:00:05.990|37=ORLBZ5NTDYWM|17=EX8RABR6RTC0|150=F|39=2|55=TSLA|54=2|38=10000|32=7450|31=148.29|151=2550|14=7450|6=148.29|10=164|8=FIX.4.4|9=141|35=D|49=SENDER|56=ECN_Y|34=600|52=20260101-00:00:06.000|11=CLL14HOAE527|21=1|55=ADBE|54=2|60=20260101-00:00:06.000|38=10|40=2|44=100.01|59=0|10=219|8=FIX.4.4|9=226|35=D|49=ALGO_A|56=TARGET|34=601|52=20260101-00:00:06.010|11=CLZR6KFKLDF4|21=1|55=JNJ|54=1|60=20260101-00:00:06.010|38=100|40=2|44=96.29|59=3|78=5|79=ACCT00|80=20|79=ACCT01|80=20|79=ACCT02|80=20|79=ACCT03|80=20|79=ACCT04|80=20|10=074|8=FIX.4.4|9=59|35=0|49=BUYSIDE1|56=EXCH_Z|34=602|52=20260101-00:00:06.020|10=076|8=FIX.4.4|9=163|35=8|49=HFT01|56=TARGET|34=603|52=20260101-00:00:06.030|37=ORDF08UPNZAS|17=EXYWDRKUPCJ8|150=F|39=2|55=KO|54=2|38=10000|32=7777|31=183.99|151=2223|14=7777|6=183.99|10=148|8=FIX.4.4|9=137|35=D|49=SENDER|56=BROKER_X|34=604|52=20260101-00:00:06.040|11=CLDGHXTUR8XU|21=1|55=BRK.B|54=1|60=20260101-00:00:06.040|38=5000|40=1|59=0|10=088|8=FIX.4.4|9=158|35=8|49=BUYSIDE2|56=TARGET|34=605|52=20260101-00:00:06.050|37=ORSASJTK3LIR|17=EXHXRHGTW4CY|150=F|39=2|55=IWM|54=2|38=50|32=10|31=173.39|151=40|14=10|6=173.39|10=022|8=FIX.4.4|9=74|35=1|49=SENDER|56=EXCH_Z|34=606|52=20260101-00:00:06.060|112=CLS9UI14NIJC|10=225|8=FIX.4.4|9=142|35=D|49=BUYSIDE1|56=ECN_Y|34=607|52=20260101-00:00:06.070|11=CLOV50EW25X1|21=1|55=WMT|54=1|60=20260101-00:00:06.070|38=75|40=2|44=120.38|59=1|10=163|8=FIX.4.4|9=56|35=0|49=HFT01|56=TARGET|34=608|52=20260101-00:00:06.080|10=056|8=FIX.4.4|9=131|35=D|49=SENDER|56=ECN_Y|34=609|52=20260101-00:00:06.090|11=CLJKX9M4V74Q|21=1|55=QQQ|54=1|60=20260101-00:00:06.090|38=500|40=1|59=3|10=152|8=FIX.4.4|9=59|35=0|49=ALGO_A|56=BROKER_X|34=610|52=20260101-00:00:06.100|10=098|8=FIX.4.4|9=134|35=D|49=BUYSIDE2|56=TARGET|34=611|52=20260101-00:00:06.110|11=CLJJJKSL66UM|21=1|55=ABBV|54=2|60=20260101-00:00:06.110|38=75|40=1|59=3|10=098|8=FIX.4.4|9=74|35=1|49=ALGO_A|56=EXCH_Z|34=612|52=20260101-00:00:06.120|112=CLKVYGW22YGY|10=031|8=FIX.4.4|9=56|35=0|49=ALGO_A|56=ECN_Y|34=613|52=20260101-00:00:06.130|10=119|8=FIX.4.4|9=158|35=8|49=BUYSIDE2|56=BROKER_X|34=614|52=20260101-00:00:06.140|37=OR53NOZ7QMJC|17=EXENTOC3JR7T|150=F|39=2|55=AVGO|54=1|38=10|32=9|31=126.40|151=1|14=9|6=126.40|10=029|8=FIX.4.4|9=214|35=W|49=BUYSIDE2|56=TARGET|34=615|52=20260101-00:00:06.150|262=CL9WRDPLFE19|55=AMZN|268=5|269=0|270=50.56|271=100|269=0|270=137.32|271=10000|269=0|270=36.03|271=10000|269=1|270=67.35|271=75|269=1|270=246.74|271=75|10=251|8=FIX.4.4|9=157|35=8|49=SENDER|56=BROKER_X|34=616|52=20260101-00:00:06.160|37=ORD09JRD4HQF|17=EXGHDILUVNHD|150=F|39=2|55=NVDA|54=2|38=75|32=53|31=70.14|151=22|14=53|6=70.14|10=202|8=FIX.4.4|9=58|35=0|49=HFT01|56=BROKER_X|34=617|52=20260101-00:00:06.170|10=239|8=FIX.4.4|9=56|35=0|49=HFT01|56=EXCH_Z|34=618|52=20260101-00:00:06.180|10=084|8=FIX.4.4|9=138|35=8|49=BUYSIDE2|56=ECN_Y|34=619|52=20260101-00:00:06.190|37=ORASNPHFC4YG|17=EXOHMJZ6N58Y|150=0|39=0|55=HD|54=1|38=1000|151=1000|14=0|6=0|10=214|8=FIX.4.4|9=160|35=W|49=HFT01|56=TARGET|34=620|52=20260101-00:00:06.200|262=CLNMNR06DJIN|55=BAC|268=3|269=1|270=54.55|271=10000|269=0|270=45.75|271=10|269=0|270=294.16|271=100|10=129|8=FIX.4.4|9=156|35=8|49=SENDER|56=BROKER_X|34=621|52=20260101-00:00:06.210|37=OR5WU2550KQP|17=EXGA8VC1J2T2|150=F|39=2|55=MRK|54=1|38=75|32=23|31=85.70|151=52|14=23|6=85.70|10=038|8=FIX.4.4|9=134|35=8|49=BUYSIDE2|56=TARGET|34=622|52=20260101-00:00:06.220|37=ORS6OGQ4IVN2|17=EXQQZZFVB9EK|150=4|39=4|55=QQQ|54=1|38=5|151=5|14=0|6=0|10=109|8=FIX.4.4|9=219|35=D|49=HFT01|56=ECN_Y|34=623|52=20260101-00:00:06.230|11=CL2U4OJ7G4EB|21=1|55=META|54=2|60=20260101-00:00:06.230|38=5000|40=2|44=123.54|59=3|78=4|79=ACCT00|80=1250|79=ACCT01|80=1250|79=ACCT02|80=1250|79=ACCT03|80=1250|10=101|8=FIX.4.4|9=139|35=8|49=BUYSIDE1|56=EXCH_Z|34=624|52=20260101-00:00:06.240|37=OR11QV1F2OF6|17=EX6JOZNHE8IF|150=4|39=4|55=TSLA|54=2|38=500|151=500|14=0|6=0|10=025|8=F