8=FIX.4.4|9=67|35=A|49=SENDER|56=TARGET|34=1|52=20260101-00:00:00.000|98=0|108=30|10=103|