8=FIX.4.4|9=55|35=0|49=SENDER|56=TARGET|34=2|52=20260101-00:00:30.000|10=062|