8=FIX.4.4|9=67|35=1|49=SENDER|56=TARGET|34=3|52=20260101-00:00:31.000|112=TEST123|10=236|