8=FIX.4.4|9=66|35=2|49=SENDER|56=TARGET|34=4|52=20260101-00:00:32.000|7=10|16=20|10=035|