8=FIX.4.4|9=136|35=D|49=SENDER|56=TARGET|34=5|52=20260101-00:01:00.000|11=ORD00001|21=1|55=IBM|54=1|60=20260101-00:01:00.000|38=100|40=2|44=150.50|59=0|10=140|