8=FIX.4.4|9=126|35=D|49=SENDER|56=TARGET|34=6|52=20260101-00:01:05.000|11=ORD00002|21=1|55=AAPL|54=2|60=20260101-00:01:05.000|38=50|40=1|59=0|10=226|