8=FIX.4.4|9=150|35=8|49=BROKER|56=SENDER|34=3|52=20260101-00:01:00.123|37=EXEC00001|17=FILL00001|150=F|39=2|55=IBM|54=1|38=100|32=100|31=150.50|151=0|14=100|6=150.50|10=078|