8=FIX.4.4|9=149|35=8|49=BROKER|56=SENDER|34=4|52=20260101-00:01:06.456|37=EXEC00002|17=FILL00002|150=F|39=1|55=AAPL|54=2|38=50|32=20|31=200.25|151=30|14=20|6=200.25|10=083|