8=FIX.4.4|9=116|35=F|49=SENDER|56=TARGET|34=7|52=20260101-00:02:00.000|41=ORD00001|11=CXL00001|55=IBM|54=1|60=20260101-00:02:00.000|10=128|