8=FIX.4.4|9=74|35=5|49=SENDER|56=TARGET|34=99|52=20260101-00:10:00.000|58=End of session|10=093|